:020000040800F2
:10000000A05B00205D020008455A00086D4F000803
:1000100089590008BB090008357A00080000000073
:100020000000000000000000000000009D0100082A
:100030009112000800000000F9010008396B000867
:1000400077020008770200087702000877020008AC
:10005000770200087702000877020008770200089C
:10006000770200087702000877020008A90C000850
:10007000B90C0008C90C0008D90C0008E90C0008EC
:10008000F90C0008090D000877020008A10A000811
:10009000710A0008810A0008910A00087702000826
:1000A000356C0008456C00087702000877020008EC
:1000B000556C0008656C0008756C00087702000834
:1000C000770200087702000877020008770200082C
:1000D000770200089D770008B1770008C57700080F
:1000E000770200087702000877020008956C000884
:1000F000770200087702000877020008190D00084F
:100100007702000877020008856C00087702000873
:10011000D1700008E5700008770200087702000837
:1001200077020008290D0008390D00087702000841
:10013000770200087702000877020008950B000894
:10014000650B0008750B0008850B00087702000896
:1001500077020008490D0008590D0008D9770008FA
:10016000770200087702000877020008770200088B
:1001700077020008770200087702000800000000FC
:100180007702000877020008DFF80CD000F0E6FBE9
:1001900000480047E98C0008A05B00202C4B196840
:1001A0000868B0E8F04F80F30988BFF36F8F4FF015
:1001B000000080F3118870470000000008480068C4
:1001C000006880F308884FF0000080F3148862B65E
:1001D00061B6BFF34F8FBFF36F8F00DF00BF00BF6B
:1001E00008ED00E0DFF80C00016841F470010160E7
:1001F000704700BF88ED00E0EFF30980BFF36F8F19
:10020000134B1A681EF0100F08BF20ED108A20E96A
:10021000F04F106009B44FF0500080F31188BFF325
:100220004F8FBFF36F8F0AF0D9FA4FF0000080F3C1
:10023000118809BC19680868B0E8F04F1EF0100F6B
:1002400008BFB0EC108A80F30988BFF36F8F704746
:1002500044000020EFF30580704700000648804707
:1002600006480047FEE7FEE7FEE7FEE7FEE7FEE79B
:10027000FEE7FEE7FEE7FEE7216C000889010008C3
:100280002DE9F05F0546002092469B4688460646CB
:10029000814640241BE0284641464746224600F05E
:1002A0008EFA53465A46C01A914110D31146184649
:1002B000224600F075FA2D1A67EB01084F462246D8
:1002C0000120002100F06CFA17EB00094E41201EBE
:1002D000A4F10104DFDC484631462A464346BDE826
:1002E000F09F40EA01039B0703D009E008C9121FF1
:1002F00008C0042AFAD203E011F8013B00F8013BE0
:10030000521EF9D27047D2B201E000F8012B491E0B
:10031000FBD270470022F6E710B513460A460446A2
:100320001946FFF7F0FF204610BD2DE9FE4F80462D
:1003300081EA0300C00F0C46009021F0004123F039
:100340000045B8EB0200A94105D24046214690463F
:100350001C460B46024623F00040104347D0270DB1
:10036000C7F30A00C3F30A510290401A01904028D3
:100370006BDAC3F3130040F4801B0098924620B15F
:100380000023D2EB030A63EB0B0B01985946C0F133
:100390004002504600F004FA06460D4650465946C3
:1003A000019A00F01CFA10EB08006141002487EA72
:1003B000115284EAE7731A4340D0009A62B3019A5B
:1003C000012A4FEA075215DC001B61EB02014FF0D6
:1003D000004202EA0752CDE90042001C41F58011BB
:1003E00032462B4600F053FA03B0BDE8F08F40468A
:1003F0002146F9E7001B61EB0201001C41F5801367
:1004000000185B412018A2F5001747EB030140EAF2
:10041000D570B6196D4111E06D084FEA360645EA10
:10042000C0754FEA0752001B61EB0201001C41F549
:10043000801149084FEA30000019514132462B46DD
:1004400003B0BDE8F04F00F013BA0098012240005D
:100450000023D0EB020263EBE073009821464FEAE1
:10046000E074B8EB000061EB0401E9E783F00043BE
:100470005BE781F0004158E72DE9FE4F81EA030474
:1004800004F0004421F0004100944FF0000B23F0F1
:10049000004350EA01045ED052EA03045BD0C3F388
:1004A0000A54C1F30A552C44A4F2F3340194A0FB7E
:1004B0000254C1F3130141F48011C3F3130343F455
:1004C000801301FB024400FB034E840A970A44EAAE
:1004D000815447EA8357A4FB076802958D0A05FB00
:1004E00007854FEA932C04FB0C542705029D4FEA25
:1004F000065847EA1637B5EB08056EEB070C870E72
:10050000920E47EA811742EA8312A7FB0201B6EB7B
:100510000B0164EB00042B0D43EA0C335E1844EB33
:100520001C50DA465146E7FB0201C5F313044FEABB
:100530000B3343EA14534FEA0432019C43EA0603A7
:10054000A4F10C040294009CCDE900B400F09FF9E2
:1005500003B0BDE8F08F00200146F9E72DE9F04D2A
:1005600081EA030404F0004B21F0004514464FF0EB
:10057000000A23F0004150EA050220D054EA0102AB
:100580001DD0C5F30A570246C5F31303C1F3130088
:10059000C1F30A5640F4801543F48013A7EB060814
:1005A000101BD64608F2FD3873EB050002D308F1A4
:1005B000010801E092185B41B8F1000F03DA002056
:1005C0000146BDE8F08D00204FF4801106468446B8
:1005D0000EE0171B73EB050705D3121B63EB050336
:1005E00006434CEA010C49084FEA300092185B417F
:1005F00050EA0107EDD152EA030012D082EA04006A
:1006000083EA0501084305D0101BAB4106D2012245
:10061000002306E000224FF0004302E06FF00102E9
:1006200053101AEB06004CEB085110EB0A0041EB9B
:100630000B01BDE8F04D00F01BB930B40446962321
:100640000800214604D0B62330BC002200F0E2B8F6
:1006500020460021F8E70EB5C10F80EAE07008449B
:10066000CA07002140F233438DE80E000A460B46CC
:1006700000F00DF903B000BD70B5C1F30A5201F0EE
:1006800000450024C1F3130140F2FF3341F480110F
:100690009A4201DA002070BD40F233439A42A2F23E
:1006A000334203DC524200F08AF800E090402C43D1
:1006B000F1D0404270BD00F0004230F000400AD05E
:1006C000C10D01F56071C0F3160042EA0151C20884
:1006D00040071143704700200146704730B5041EA3
:1006E00071F1000404DB4FF00044404264EB01016F
:1006F000141E73F1000405DB1C464FF00043524208
:1007000063EB04038B4208BF824230BD30B5041E48
:1007100071F1000404DB4FF00044404264EB01013E
:10072000141E73F1000405DB1C464FF000435242D7
:1007300063EB0403994208BF904230BD01F00043CF
:1007400030B421F0004150EA010206D00A0DA2F5B2
:100750006072C1F31301002A02DC30BC0020704734
:10076000440F44EAC104C100E01830BC00EBC250A1
:1007700000F047B830B50B46014600202022012486
:1007800009E021FA02F59D4205D303FA02F5491B5F
:1007900004FA02F52844151EA2F10102F1DC30BD75
:1007A000202A04DB203A00FA02F100207047914031
:1007B000C2F1200320FA03F3194390407047202A26
:1007C00004DB203A21FA02F00021704721FA02F3FB
:1007D000D040C2F120029140084319467047202AB8
:1007E00006DBCB17203A41FA02F043EAE07306E059
:1007F00041FA02F3D040C2F1200291400843194669
:1008000070470029A8BF7047401C490008BF20F06E
:100810000100704710B4B0FA80FC00FA0CF050EA06
:10082000010404BF10BC704749B1CCF1200421FA87
:1008300004F411FA0CF118BF012121430843A3EB82
:100840000C01CB1D4FEA00614FEA102042BF00208F
:1008500010BC704700EBC35010440029A4BF10BC6B
:100860007047401C490008BF20F0010010BC7047D1
:1008700010B5141E73F1000408DA401C41F10001A8
:1008800092185B411A4301D120F0010010BD2DE9FF
:10089000F04D92469B4611B1B1FA81F202E0B0FAF6
:1008A00080F220329046FFF77BFF04460F4640EA75
:1008B0000A0041EA0B0153465A46084313D0114639
:1008C00053EA010019D0C8F140025046FFF777FF04
:1008D00005460E46504659464246FFF761FF08431B
:1008E00005D0012004E020463946BDE8F08D002007
:1008F000054346EAE0762C4337430A986305E40A49
:10090000A0EB08000022FD0A44EA47540A3002D551
:1009100000200146E9E7010510196941DDE90845B4
:1009200000196941BDE8F04DA2E7C1F30A52C1F3D5
:10093000130140F2FF3341F480119A4202DA0020A1
:100940000146704740F233439A42A2F2334202DC3E
:100950005242FFF734BFFFF723BF0000064C074D9C
:1009600006E0E06840F0010394E80700984710347F
:10097000AC42F6D3FFF70CFCACBD0008CCBD0008C0
:1009800030B58C1810F8012B12F00F0301D110F8BC
:10099000013B120906D110F8012B03E010F8015BAE
:1009A00001F8015B5B1EF9D101E001F8013B521E29
:1009B000FBD1A142E6D3002030BD00BFFEE770B5F9
:1009C00006460C4615462846E91705EB9171891035
:1009D000616100202061012020622146304601F043
:1009E000EBFA70BD2DE9F04107460E46154600248E
:1009F00036E02046E11704EB91718910A4EB8101E8
:100A000031B1012909D002290CD0032919D10EE0F6
:100A100055F824004001306013E055F824004001EF
:100A200070600EE055F824004001B06009E055F810
:100A300024004001F060224631463846FFF7BFFFF0
:100A400000BF00BF601C55F8200040F6FF718842CF
:100A500004D1224631463846FFF7B1FF601CC4B2CC
:100A600055F8240040F6FF718842C2D1BDE8F081FC
:100A700010B5024801F018FC10BD00002408002049
:100A800010B5024801F010FC10BD00002408002041
:100A900010B5024801F008FC10BD00002408002039
:100AA00010B5024801F000FC10BD00002408002031
:100AB00070B506460C4615462846E91705EB9171B8
:100AC00089100E316161012020612062214630468B
:100AD00001F072FA70BD2DE9F04107460E46154649
:100AE000002436E02046E11704EB91718910A4EB55
:100AF000810131B1012909D002290CD0032919D172
:100B00000EE055F824004001306013E055F8240051
:100B1000400170600EE055F824004001B06009E02B
:100B200055F824004001F060224631463846FFF770
:100B3000BFFF00BF00BF601C55F8200040F6FF71EA
:100B4000884204D1224631463846FFF7B1FF601C87
:100B5000C4B255F8240040F6FF718842C2D1BDE806
:100B6000F081000010B5024801F09EFB10BD0000AE
:100B70004C08002010B5024801F096FB10BD0000A3
:100B80004C08002010B5024801F08EFB10BD00009B
:100B90004C08002010B5024801F086FB10BD000093
:100BA0004C08002030B58BB004460D46012007905C
:100BB000002008900E200A900A492068884205D13A
:100BC0002A4601A92046FFF70DFF08E006492068E4
:100BD000884204D12A4601A92046FFF77CFF0BB0CA
:100BE00030BD0000006400400068004000B58BB0DC
:100BF00014220B4906A8FFF774FB18220849143188
:100C00006846FFF76EFB074A06A9074807F01AFE79
:100C1000064A6946064807F015FE0BB000BD000005
:100C200018BA0008397A000824080020D57A00088C
:100C30004C08002086B000BF4FF0FF32012168460B
:100C400008F0E6F89DE8070003AB07C303980828FF
:100C5000F2D109F053FB049800F0010058B10020D4
:100C600000901048B0F90220B0F9001000234FF4B2
:100C7000007007F04BFD049800F0020018B90498CA
:100C800000F0040058B1002000900648B0F906308A
:100C9000B0F90420002140F2FF1007F087FD09F0B1
:100CA00057FBC9E71201002010B5024801F0A0FE71
:100CB00010BD0000940C002010B5024801F098FE11
:100CC00010BD0000D40E002010B5024801F090FEC7
:100CD00010BD0000D40B002010B5024801F088FEC2
:100CE00010BD0000340F002010B5024801F080FE56
:100CF00010BD0000340C002010B5024801F078FE51
:100D000010BD0000140E002010B5024801F070FE66
:100D100010BD0000740E002010B5024801F068FEFE
:100D200010BD0000F40C002010B5024801F060FE78
:100D300010BD0000F40F002010B5024801F058FE6D
:100D400010BD0000540D002010B5024801F050FE07
:100D500010BD0000940F002010B5024801F048FEBD
:100D600010BD0000B40D002001460878103818238B
:100D7000B0FBF3F20848805CC865032A05D908680F
:100D80006FF30900001D886503E008686FF3090030
:100D90008865886D70470000F8B90008014600209A
:100DA0008A6A8B69CBB932B1012A0DD0022A03D0ED
:100DB000032A10D10EE000BFCB6A03F08073B3F1B9
:100DC000807F00D1012007E0CB6AB3F1C07F00D162
:100DD000012001E000E000BF34E08B69B3F5005F63
:100DE0001AD132B1012A07D0022A03D0032A11D125
:100DF0000AE000BF01200EE0CB6A03F08073B3F17C
:100E0000807F00D1012006E0CB6AB3F1C07F00D122
:100E1000012000E000BF15E032B1012A05D0022A0E
:100E200004D0032A0CD103E000BF00BF012008E07A
:100E3000CB6A03F08073B3F1807F00D1012000E022
:100E400000BF00BF704730B50468246824F48024D4
:100E500005682C60046863608468402C04D10468D1
:100E6000A2600468E16003E00468A1600468E260D5
:100E700030BD000010B52DED028B3948007839499E
:100E8000087039494869FFF7E6FB41EC180B9FED04
:100E9000370B53EC102BFFF739FC03D204203049F9
:100EA000087047E030494869FFF7D5FB41EC180B63
:100EB0009FED300B53EC102BFFF728FC03D20320DF
:100EC0002749087036E028494869FFF7C4FB41EC20
:100ED000180B9FED2A0B53EC102BFFF717FC03D2D6
:100EE00002201F49087025E01F494869FFF7B3FB3E
:100EF00041EC180B9FED230B53EC102BFFF706FC76
:100F000003D201201649087014E0174840694CF2DA
:100F10005031884203DA0020114908700AE0124873
:100F2000807E062803D101200D49087002E00020D0
:100F30000B4908700B4800780949097888420CD0A1
:100F40000848007806490978884206DA044800789B
:100F5000042802D001200D490870BDEC028B10BDA1
:100F60003C0100203D010020B0520020676666E68B
:100F7000A53472419A9999D92D5B6B41676666E6F3
:100F80000F4D6241676666E6E37D52413E010020F7
:100F900010B501460F2900DC09B9002010BD04225C
:100FA00002EB8102D0B20023074C04F821308A0002
:100FB000521CA35480238A00921CA3547F238A00CE
:100FC000D21CA35400BFE9E7F44F002010B52DED6B
:100FD000020B0C4890F84100401C0A4981F841007E
:100FE000084690F841000F2800DD1CBD054890F828
:100FF0004100401E8006020E0249684600F0B4FA25
:1010000000BFF2E7F44F002010B5044600F018F8D6
:101010000A4991F84100FFF7BBFF084981F84000F9
:10102000084690F84020204603F054FF0020034972
:1010300081F8410081F8400010BD0000F44F00200D
:1010400010B52DED028B8848007805287BD2DFE8AB
:1010500000F003547BBFE8008448D0ED020AF1EEB3
:10106000600AB0EE600AFFF7B1FF8048D0ED010AD8
:10107000B0EE600AFFF7AAFF7C48D0ED040AB0EE9C
:10108000600AFFF7A3FF7948D0ED030AB0EE600ACB
:10109000FFF79CFF7548B0F9140000EE900AF8EED7
:1010A000E00AB0EE600AFFF791FF7048B0F9160051
:1010B00000EE900AF8EEE00AB0EE600AFFF786FF55
:1010C0006B48D0ED090AB0EE600AFFF77FFF684871
:1010D000D0ED0A0AB0EE600AFFF778FF6448D0ED61
:1010E0002B0AB0EE600AFFF771FF6148D0ED2C0AC1
:1010F000B0EE600AFFF76AFFB1E05E48D0ED030A88
:10110000F8EEE00AB0EE600AFFF760FF5948D0ED54
:10111000050AF8EE600AB0EE600AFFF757FF55487F
:10112000008800EE900AF8EE600AB0EE600AFFF761
:101130004DFF5048D0ED020AF8EEE00AB0EE600A2A
:10114000FFF744FF8BE089E04B48D0ED020AB0EE98
:10115000600AFFF73BFF4848D0ED030AB0EE600A93
:10116000FFF734FF4448D0ED000AB0EE600AFFF705
:101170002DFF4148D0ED010AB0EE600AFFF726FFCF
:101180003D48B0F9140000EE900AF8EEE00AB0EE27
:10119000600AFFF71BFF3948D0ED0A0AB0EE600A7B
:1011A000FFF714FF3548D0ED090AB0EE600AFFF7EB
:1011B0000DFF3348D0ED0A0AB0EE600AFFF706FFD4
:1011C0002F48D0ED090AB0EE600AFFF7FFFE46E0B7
:1011D0002C48008800EE900AF8EE600AB0EE600A33
:1011E000FFF7F4FE2748408800EE900AF8EE600A08
:1011F000B0EE600AFFF7EAFE2248808800EE900A0F
:10120000F8EE600AB0EE600AFFF7E0FE1D48807954
:1012100000EE900AF8EE600AB0EE600AFFF7D6FE24
:101220001DE01448D0ED050AF8EE600AB0EE600A41
:10123000FFF7CCFE1448D0ED050AF8EE600AB0EED8
:10124000600AFFF7C3FE114903C9FFF7F6F908EE7C
:10125000100AB0EE480AFFF7B9FE00E000BF00BF79
:10126000BDEC028B10BD00003B0100209852002015
:1012700088510020585100207854002090540020BC
:10128000185500202101002070510020000000208E
:101290007047000008B507F081FD00900AE009F0F2
:1012A0002DF80548FFF7B0FE09F052F80121684615
:1012B00007F061FDF3E70000FC0A002072B600BFF2
:1012C000FEE7000010B5002201B909E0012901D1B3
:1012D0000A0205E0022901D10A0201E04FF440723E
:1012E0000E4B1B6823F440730C4C236023461B6891
:1012F0001343236023461B6823F0F803236023462F
:101300001B68022444EAC0042343044C23602346A0
:101310001B6843F48033236010BD0000103C024082
:101320001C48006800F40070B0B11A48006820F44E
:1013300000701849086000BF0846006840F400606B
:1013400008600846006820F40060086000BF084696
:10135000006840F4007008600E48006800F4806087
:10136000B0B10C48006820F480600A49086000BFF2
:101370000846006840F4805008600846006820F481
:101380008050086000BF0846006840F48060086034
:1013900070470000003C02400A4A126822F4407282
:1013A000084B1A601A46126842F004021A601A4684
:1013B00012684FF4803343EA00231A43014B1A604A
:1013C00070470000103C0240074A126822F4407245
:1013D000054B1A601A4612681A601A46126842F0E3
:1013E00001021A6001707047103C024010B50A49B2
:1013F000096821F44071084C21602146096841F4D4
:10140000407121602146096841F0010121600260BC
:10141000BFF36F8F436010BD103C0240084A126852
:1014200022F44072064B1A601A46126842F4807227
:101430001A601A46126842F001021A600180704771
:10144000103C0240084A126822F44072064B1A60AF
:101450001A46126842F400721A601A46126842F084
:1014600001021A6001607047103C02402348006886
:1014700000F0100040B12248C06940F0100020493F
:10148000C86110201D4908601C48006800F0200059
:1014900040B11B48C06940F008001949C8612020CC
:1014A000164908601548006800F0400040B1144833
:1014B000C06940F004001249C86140200F4908602B
:1014C0000E48006800F0800040B10D48C06940F04F
:1014D00002000B49C861802008490860074800687D
:1014E00000F0020040B10648C06940F02000044905
:1014F000C861022001490860704700000C3C0240AE
:101500009C10002070B50446002500201449C861D5
:1015100001F01CFE054609E0601C38B124B101F061
:1015200015FE401BA04201D9032070BD0D48006884
:1015300000F480300028EFD10A48006800F0010074
:1015400010B10120074908600648006800F0F20069
:1015500018B1FFF78BFF0120E7E70020E5E7000067
:101560009C1000200C3C024030B503461C788C5483
:101570005D78541C0D559D78941C0D55DD78D41C58
:101580000D5530BD024908700249087070470000CF
:10159000985200203A01002030B5034613B94FF6A7
:1015A000FF7030BD09E013F8014B82EA0400C0B2BD
:1015B000054D35F8100080EA2222081EA1F1010134
:1015C000F1D11046EDE7000046BB000830B50346F8
:1015D00005E013F8010B80EA02040448025D081ECE
:1015E000A1F10105A9B2F4D1104630BD45BA0008F9
:1015F00010B50748007810B900F084F905E00448F8
:101600000078012801D100F005F800F023FB10BD9F
:101610007401002010B52DED0C8BAB48007858B14B
:101620000020AA490860AA49087008F067FE002057
:10163000A549087008F08CFEA648C07D10B10128AD
:101640007ED1A7E0A4498868FFF705F841EC1D0B9F
:101650009FEDA20B53EC102BFEF70EFF41EC1B0B82
:10166000A04890ED000AB1EE400A9F48D0ED000A74
:1016700020EE200A10EE101A0846FFF71CF841EC85
:101680001C0B53EC1B2BFEF750FE41EC190B97483B
:101690000068FFF710F841EC1A0B53EC192BFEF71A
:1016A00044FE41EC180BFFF749F8904908608A495D
:1016B0008868FEF7D0FF41EC1B0B9FED880B53ECC5
:1016C000102BFEF7D9FE41EC190B864890ED000A6D
:1016D000B1EE400A8448D0ED000A20EE200A10EE58
:1016E000101A0846FEF7E7FF41EC1A0B53EC192BD2
:1016F000FEF71BFE41EC180BFFF720F87C49086051
:1017000075498868FEF7A7FF41EC1C0B9FED730B32
:1017100053EC102BFEF7B0FE41EC1A0B714890ED24
:10172000000AB1EE400A7048D0ED000A20EE200A0F
:1017300010EE101A0846FEF7BEFF41EC1B0B00E04E
:10174000B7E053EC1A2BFEF7F0FD41EC190BB0EEAD
:10175000490AF0EE690A06F05BFBB0EE408AF0EE53
:10176000608A9FED640B53EC102B51EC180BFEF7C5
:10177000B5FF0BD2554801680068401C534A106001
:10178000642906D901205249087002E000204F491F
:1017900008608FE05948007804287DD04E49574AA8
:1017A000127851F82200FEF756FF41EC1D0B9FED19
:1017B0004B0B53EC102BFEF75FFE41EC1B0B494823
:1017C00090ED000AB1EE400A4748D0ED000A20EE45
:1017D000200A10EE101A0846FEF76DFF41EC1C0BB4
:1017E00053EC1B2BFEF7A1FD41EC190B3F480068A1
:1017F000FEF761FF41EC1A0B53EC192BFEF795FD38
:1018000041EC180BFEF79AFF3849086032493B4A11
:10181000127851F82200FEF71EFF41EC1C0B9FEDE1
:101820002F0B53EC102BFEF727FE41EC1A0B2D4823
:1018300090ED000AB1EE400A2B48D0ED000A20EEF0
:10184000200A10EE101A0846FEF735FF41EC1B0B7C
:1018500053EC1A2BFEF769FD41EC190BB0EE490A67
:10186000F0EE690A06F0D4FAB0EE408AF0EE608A33
:101870009FED200B53EC102B51EC180BFEF72EFFB5
:101880000DD2124801680068401C104A106064299B
:101890000ED901200E4900E005E0087008E00020A4
:1018A0000A49086004E09FED160A104880ED000A1E
:1018B00000E000BF00BF0D4890ED000A054880ED34
:1018C000030ABDEC0C8B10BD3E0100205801002026
:1018D0005401002078540020745000207B14AE473F
:1018E000E17A843F700100205C010020500100205B
:1018F00060010020000000000000F03F3C010020DB
:1019000000F228C800203749086037490870374876
:101910000078D0B93648D0ED000A3648008800EE8D
:10192000100AB8EE400A30EEC00A314880ED000AD5
:1019300090ED000ADFED300AB4EEE00AF1EE10FAA5
:1019400021D20120294908701DE02848007801288B
:1019500019D12748D0ED000A2648008800EE100A69
:10196000B8EE400A30EE800A214880ED000A90ED82
:10197000000ADFED220AB4EEE00AF1EE10FA02DD11
:1019800000201A4908701A4890ED000ADFED1B0A82
:10199000B4EEE00AF1EE10FA09D890ED000ADFED9E
:1019A000160AB4EEE00AF1EE10FA00DB13E010487C
:1019B00090ED000ADFED110AB4EEE00AF1EE10FA44
:1019C00004DD9FED0E0A80ED000A04E09FED0A0A97
:1019D000074880ED000A064890ED000A084880EDAF
:1019E000030A7047580100205401002064010020C0
:1019F0005001002066010020C0273AC800F228C824
:101A00007854002010B500F029F80E48807D052894
:101A100012D2DFE800F006030A0D0E0000F036F8DF
:101A20000BE000200749888207E000F065F904E038
:101A300003E0FFF7DDFD00E000BF00BF00F004F8A9
:101A400010BD0000785400200248808A0249888036
:101A50007047000078540020120100200948B0F9B6
:101A6000040000EE100AB8EEC00A074880ED000A34
:101A7000044890ED030AB8EEC00A034880ED020A5C
:101A800070470000705100207854002010B51C48A9
:101A90000078B8B99FED1B0A1B4880ED010A90ED54
:101AA000011AF0EE410A90ED001AB0EE410A174813
:101AB00003F0CAFFBDEEC00A10EE100A00B21249D0
:101AC00088821BE00E480078012817D108F016FC28
:101AD0000F4800880E4908820020886008F038FC12
:101AE0000020094988820A4890ED030AB8EEC00A2E
:101AF000084680ED040A01200649087010BD000068
:101B00001C0100200000484478540020905400201C
:101B1000705100206801002005284FD2DFE800F056
:101B200007030B3034000121254A917546E000215E
:101B3000234A917542E02349097831B1012905D042
:101B400002290BD0032908D101E000BF00BF022108
:101B50001B4A91750121D17510E00FE01A49B1F9C6
:101B60000810B1F5167F05DD0221154A9175002197
:101B7000D17502E00021124A917500BF00BF1DE03F
:101B800003210F4A917519E004210D4A91750D4901
:101B9000097851B1012909D0022902D003290AD1BB
:101BA00005E00021064AD17506E000BF00BF012113
:101BB000034AD17500E000BF00BF00BF00BF7047FF
:101BC00078540020DE0000203650002010B50020A0
:101BD000184988752023DFED183A9FED173AF3EE88
:101BE000042A9FED162ADFED141A9FED151ADFED7A
:101BF000150AB7EE000A142240F6FF71124803F0EE
:101C0000DBFF0123DFED0C3A9FED0B3ADFED0A2AF3
:101C10009FED092ADFED081A9FED071ADFED0B0A89
:101C20009FED050A002247F23051094803F0C4FF36
:101C300010BD000078540020000000000000C842E1
:101C40000AD7A33C6666863F18550020CDCC2042BB
:101C50009054002010B5234890ED030AB5EEC00A59
:101C6000F1EE10FA09D890ED030ADFED1F0AB4EE89
:101C7000E00AF1EE10FA00DB11E01A4890ED030AD9
:101C8000B5EEC00AF1EE10FA04DD9FED180A80ED02
:101C9000030A04E09FED140A124880ED030A11487C
:101CA00090ED031AF0EE410A90ED021AB0EE410AEF
:101CB0000F4803F0C9FE0B4880ED010A90ED011AB0
:101CC000F0EE410A90ED001AB0EE410A094803F027
:101CD000BBFEBDEEC00A10EE100A00B201498882B8
:101CE00010BD000078540020000250C80000000021
:101CF000185500209054002010B52DED0A8B39485E
:101D0000C07D10B1012865D14BE008F0F7FA3649E3
:101D1000B1F90200FEF79FFC41EC1C0B9FED330B69
:101D200053EC102BFEF71AFC41EC1B0B9FED310B13
:101D300053EC102BFEF7A0FB41EC190B2F498868E0
:101D4000FEF789FC41EC1A0B53EC192BFEF78EFBC6
:101D500041EC180BFEF790FC284988600846806823
:101D6000002805DC084680682549884200DB0AE037
:101D700022488068002803DD00202049886002E0B6
:101D80001F481E49886001201E49087008F0E0FACB
:101D90001A4890ED020AB8EEC00A124880ED030A14
:101DA00019E016481849097850F8210000EE100A89
:101DB000B8EEC00A0B4880ED030A134800780428E7
:101DC00007DB0E4890ED030AB8EEC00A054880ED27
:101DD000030A00E000BF00BFFFF73CFFBDEC0A8B29
:101DE00010BD000078540020365000200000000094
:101DF00000F08440FA7E6ABC74935840645000201E
:101E0000F8BFFCFFD00000203C01002008B506F020
:101E1000C5FF0090FFF7DAFE0EE008480078FFF7F4
:101E20007BFEFFF7EFFD04210548006806F0C0FFC8
:101E30000221684606F09FFFEFE7000069010020DD
:101E40000C00002010B5024692F82030012B01D082
:101E5000022B06D1106840690843146860610020B5
:101E600010BD506A40F4802050620120F8E7F0B5C0
:101E700004460D461E4694F8207020688368A868C2
:101E800000B900E000BF012F01D0022F7DD103F087
:101E9000806030B903F0006018B903F0805000286A
:101EA0007ED0C3F30161012088403060A86860B92A
:101EB000B5F800C0E86840EA4C5C206800F5C070E6
:101EC00000EB0110C0F800C00FE0D5E901C040EA06
:101ED000CC00D5F80CC040EA0C00D4F800C00CF5DA
:101EE000C07C0CEB011CCCF80000D5F810C02068B9
:101EF00000F5C07000EB0110C0F804C0287D012877
:101F00000ED1206800F5C07000EB0110406840F46D
:101F1000807C206800F5C07000EB0110C0F804C0A0
:101F2000D079000692F806C040EA0C4092F805C04D
:101F300040EA0C2092F804C040EA0C00D4F800C03B
:101F40000CF5C07C0CEB011CCCF80C00D078000622
:101F500092F802C040EA0C4092F801C040EA0C201E
:101F600092F800C040EA0C00D4F800C00CF5C07C28
:101F70000CEB011CCCF80800206800F5C07000EBE9
:101F80000110006840F0010C01E00FE008E020685B
:101F900000F5C07000EB0110C0F800C00020F0BDDB
:101FA000606A40F4001060620120F8E7606A40F463
:101FB000802060620120F2E7F0B504460A462168FD
:101FC00094F82050012D01D0022D7ED1424901F517
:101FD0000071086840F001000860086820F47C5037
:101FE00008600868566A40EA06200860107D00F024
:101FF0001F06012000FA06F3C8699843C861A1F5DD
:102000000071D069C8B9D1F80C029843C1F80C022C
:10201000908880B2968940EA064601F510705769AB
:1020200040F83760108880B2168940EA064601F50C
:102030001070576900EBC7004660D069012819D1BC
:10204000D1F80C021843C1F80C02908880B21688AF
:1020500040EA064601F51070576940F837609089EC
:1020600080B2168940EA064601F51070576900EB08
:10207000C7004660906928B9D1F804029843C1F8B6
:10208000040204E0D1F804021843C1F80402106904
:1020900028B9D1F814029843C1F8140204E0D1F829
:1020A00014021843C1F81402106A012804D1D1F8AF
:1020B0001C021843C1F81C02D1F8000220F00100F4
:1020C000C1F800020020F0BDFFE7606A40F4802004
:1020D00060620120F7E7000000640040704770B5BF
:1020E000044694F82050012D01D0022D7DD151B924
:1020F0002068C06800F0030080B9606A40F40010F6
:102100006062012070BD2068006900F0030028B9FA
:10211000606A40F4001060620120F3E7206800F577
:10212000D87000EB0110006800F004009060906827
:1021300040B9206800F5D87000EB01100068400D30
:10214000106007E0206800F5D87000EB011000680F
:10215000C0085060206800F5D87000EB01100068DE
:1021600000F00200D060206800F5D87000EB01108C
:10217000406800F00F00082802D30820106108E032
:10218000206800F5D87000EB0110406800F00F00E7
:102190001061206800F5D87000EB0110406800F471
:1021A0007F40000A9061206800F5D87000EB0110B4
:1021B0004068000C5061206800F5D87000EB0110F9
:1021C00080681870206800F5D87000EB01108068F6
:1021D00000F47F40000A5870206800F5D87000EBCA
:1021E0000110806800F47F0000E03CE0000C987073
:1021F000206800F5D87000EB01108068000ED870E0
:10220000206800F5D87000EB0110C06818712068D4
:1022100000F5D87000EB0110C06800F47F40000AA0
:102220005871206800F5D87000EB0110C06800F408
:102230007F00000C9871206800F5D87000EB011049
:10224000C068000ED87131B92068C06840F0200025
:102250002668F06005E02068006940F020002668EC
:10226000306100204EE7606A40F480206062012007
:1022700048E70146002091F82020012A01D0022AD7
:1022800011D10B689B6803F0806303B1401C0B689D
:102290009B6803F0006303B1401C0B689B6803F06C
:1022A000805303B1401C70472DE9F05F04460025C0
:1022B000206846692068D0F8049020688768206804
:1022C000D0F80CA02068D0F810B02068D0F81880A2
:1022D00006F00100002855D007F00100C0B1012030
:1022E0002168886007F0020018B1204600F00DFB5D
:1022F0000EE007F0040010B145F4006508E007F0B7
:10230000080010B145F4805502E0204600F0FCFAC8
:1023100007F48070C8B14FF480702168886007F4BA
:10232000007018B1204600F0F2FA0EE007F4806069
:1023300010B145F4005508E007F4006010B145F411
:10234000804502E0204600F0E1FA07F48030C8B191
:102350004FF480302168886007F4003018B12046BF
:1023600000F0D7FA0EE007F4802010B145F40045E4
:1023700008E007F4002010B145F4803502E0204663
:1023800000F0C6FA06F0080038B10AF0100020B1DB
:1023900045F4007510202168C86006F0040040B1C3
:1023A0000AF0080028B108202168C860204600F023
:1023B0003FFA06F0020038B12068C06800F0030060
:1023C00010B1204600F036FA06F0400038B10BF0AC
:1023D000100020B145F4806510202168086106F0E6
:1023E000200040B10BF0080028B1082021680861E6
:1023F000204600F03BFA06F0100038B12068006972
:1024000000F0030010B1204600F032FA06F400306C
:1024100040B109F0100028B1102021684860204622
:1024200000F042FA06F4803040B109F0080028B10B
:10243000082021684860204600F06CFA06F400404D
:1024400088B309F0040078B306F4807020B108F076
:10245000010008B145F0010506F4007020B108F054
:10246000020008B145F0020506F4806020B108F0D2
:10247000040008B145F0040506F40060A0B108F0BE
:10248000700088B108F07000402817D006DC1028D2
:102490000BD020280CD0302819D10CE0502810D0B7
:1024A000602814D110E01DE019E045F008050FE0A8
:1024B00045F010050CE045F0200509E045F0400529
:1024C00006E045F0800503E045F4807500E000BFBC
:1024D00000BF2068806920F07000216888610420B6
:1024E000216848602DB1606A284360622046FFF78A
:1024F000F5FDBDE8F09F70B504460CB9012070BD34
:1025000094F8200010B9204600F0B0F82068006868
:1025100040F001002168086000F018FE05460DE05B
:1025200000F014FE401B0A2808D9606A40F400300D
:102530006062052084F820000120E0E72068406800
:1025400000F001000028EBD02068006820F00200B5
:102550002168086000F0FAFD05460DE000F0F6FD88
:10256000401B0A2808D9606A40F4003060620520E8
:1025700084F820000120C2E72068406800F00200D3
:102580000028EBD1207E012806D12068006840F0A9
:1025900080002168086005E02068006820F0800065
:1025A00021680860607E012806D12068006840F03C
:1025B00040002168086005E02068006820F04000C5
:1025C00021680860A07E012806D12068006840F0DC
:1025D00020002168086005E02068006820F02000E5
:1025E00021680860E07E012806D12068006820F09C
:1025F00010002168086005E02068006840F01000C5
:1026000021680860207F012806D12068006840F01A
:1026100008002168086005E02068006820F00800D4
:1026200021680860607F012806D12068006840F0BA
:1026300004002168086005E02068006820F00400BC
:1026400021680860D4E902010843216908436169EF
:1026500008436168491E08432168C8610020606220
:10266000012084F82000002049E7000010B586B062
:102670000446142101A8FDF74DFE674920688842F1
:1026800059D166480068401C6449086008460068E3
:1026900001280FD100BF002000906148006840F081
:1026A00000705F4908600846006800F00070009004
:1026B00000BF00BF00BF00200090594810380068DC
:1026C00040F008005649103908600846006800F0DC
:1026D0000800009000BF00BF03200190022002907C
:1026E00000200390032004900920059001A94D4883
:1026F00000F024FC00220521132000F0EFFD132040
:1027000000F0D8FD00220521142000F0E7FD142080
:1027100000F0D0FD00220521152000F0DFFD15207E
:1027200000F0C8FD00220521162000F0D7FD16207C
:1027300000F0C0FD6DE03C492068884269D100BFCF
:10274000002000903648006840F0806034490860FE
:102750000846006800F08060009000BF00BF2F486E
:102760000068401C2D4908600846006801280FD108
:1027700000BF002000902A48006840F000702849FF
:1027800008600846006800F00070009000BF00BFBD
:1027900000BF0020009022481038006840F002007E
:1027A0001F49103908600846006800F002000090D8
:1027B00000BF00BF4FF44050019002200290002063
:1027C0000390032004900920059001A9174800F008
:1027D000B5FB002205213F2000F080FD3F2000F0E6
:1027E00069FD00220521402000F078FD402000F026
:1027F00061FD00220521412000F070FD412000F024
:1028000059FD00220521422000F068FD422000F021
:1028100051FD06B010BD00000064004030000020F3
:1028200040380240000C02400068004000040240B2
:102830007047000010B504460949206888420DD150
:10284000084BA3F11C0200212046FFF748FC054974
:102850001C3908681C31044A1268904710BD0000FA
:1028600000640040F04E0020C000002070470000CF
:1028700010B504460949206888420DD1084BA3F1E0
:102880001C0201212046FFF72AFC05491C39086873
:102890001C31044A1268904710BD000000680040D7
:1028A000F04E0020C4000020704770B5044694F834
:1028B0002000012822D1022084F82000206800682E
:1028C00020F001002168086000F040FC05460DE0A2
:1028D00000F03CFC401B0A2808D9606A40F4003034
:1028E0006062052084F82000012070BD20684068E7
:1028F00000F001000028EBD16062F6E7606A40F466
:10290000002060620120F0E7704770477047704711
:1029100070477047704770B50446A56D00F016FC0F
:10292000064694F83500022808D08020606500BF74
:10293000002084F8340000BF012070BD20680068CA
:1029400020F01600216808602068406920F08000AF
:1029500021684861206C08B9A06C28B12068006823
:1029600020F00800216808602068006820F001005D
:102970002168086010E000F0E9FB801B05280BD9F6
:1029800020206065032084F8350000BF002084F813
:10299000340000BF0320D0E72068006800F0010089
:1029A0000028E8D194F85C103F208840A8600120FE
:1029B00084F8350000BF002084F8340000BF00BF59
:1029C000BBE7014691F83500022803D08020486516
:1029D00001207047052081F835000868006820F064
:1029E00001000A6810600020F3E70146486D704757
:1029F000F8B50446002000908C4800684FF416514A
:102A0000B0FBF1F7A56D2E6894F85C1008208840A3
:102A1000304098B12068006800F0040070B1206870
:102A2000006820F004002168086094F85C10082019
:102A30008840A860606D40F00100606594F85C100B
:102A400001208840304068B12068406900F0800073
:102A500040B194F85C1001208840A860606D40F09F
:102A60000200606594F85C1004208840304068B132
:102A70002068006800F0020040B194F85C10042067
:102A80008840A860606D40F00400606594F85C10B8
:102A900010208840304078B32068006800F00800BB
:102AA00050B394F85C1010208840A860206800683B
:102AB00000F4802080B12068006800F4002028B96C
:102AC000206CC8B12046216C884715E0A06C98B1F5
:102AD0002046A16C88470FE02068006800F48070F1
:102AE00028B92068006820F0080021680860206C80
:102AF00010B12046216C884794F85C102020884053
:102B00003040002865D02068006800F010000028E0
:102B10005FD094F85C1020208840A86094F83500BD
:102B2000052828D12068006820F016002168086078
:102B30002068406920F0800021684861206C08B955
:102B4000A06C28B12068006820F0080021680860A7
:102B500094F85C103F208840A860012084F835007C
:102B600000BF002084F8340000BF206D10B1204663
:102B7000216D8847F8BD2068006800F4802080B18E
:102B80002068006800F4002028B9606C10B120466D
:102B9000616C88471DE0E06BD8B12046E16B884747
:102BA00017E02068006800F4807068B92068006849
:102BB00020F0100021680860012084F8350000BF73
:102BC000002084F8340000BFE06B10B12046E16BB8
:102BD0008847606D38B3606D00F00100F0B10520EA
:102BE00084F835002068006820F001002168086042
:102BF00000BF0098401C0090B84200D905E0206852
:102C0000006800F001000028F3D100BF012084F823
:102C1000350000BF002084F8340000BFE06C10B124
:102C20002046E16C884700BFA4E700004000002078
:102C30002DE9F0410446002500F088FA074614B952
:102C40000120BDE8F081606A00B100BF022084F875
:102C5000350000BF002084F8340000BF2068006801
:102C600020F00100216808600AE000F06FFAC01B44
:102C7000052805D920206065032084F83500E0E7A9
:102C80002068006800F001000028EED12068056887
:102C900021480540D4E901010843E168084321695E
:102CA000084361690843A1690843E1690843216A4F
:102CB00008430543606A042803D1D4E90B010843A3
:102CC0000543206805602068456925F00705606AAE
:102CD0000543606A04280DD1A06A0543E06A48B143
:102CE0002046FEF75BF828B140206065012084F89B
:102CF0003500A6E7206845612046FEF735F8064610
:102D000094F85C103F208840B0600020606501208E
:102D100084F83500002094E73F8010F02DE9F0475B
:102D200004460D4616461F464FF00008D4F858904A
:102D300000BF94F83400012802D10220BDE8F087DA
:102D4000012084F8340000BF94F83500012825D113
:102D5000022084F83500002060653B463246294653
:102D60002046FEF770F894F85C103F208840C9F8C0
:102D700008002068006840F0160021680860206C98
:102D800028B12068006840F00800216808602068C9
:102D9000006840F001002168086006E000BF0020E4
:102DA00084F8340000BF4FF002084046C6E7000038
:102DB0002DE9F04104460E460127002500BF2548B5
:102DC000007E012802D10220BDE8F08101202149C6
:102DD000087600BF4CF25030FEF794FB0746002FF8
:102DE00031D1401E3060206801280FD1207C6168FD
:102DF000FEF7D2FA4CF25030FEF784FB0746164835
:102E0000006820F00400144908601AE0A56812E088
:102E1000217C2846FEF756FA4CF25030FEF772FB42
:102E200007460D48006820F0FA000B4908600FB112
:102E3000356005E06D1CD4E902100844A842E7D8CB
:102E400000BFFEF76DFA00BF00200249087600BF00
:102E50003846B9E79C100020103C02400348006847
:102E600040F000400149086000207047103C0240DB
:102E70002DE9F04106460F4614461D464FF0010865
:102E800000BF1F48007E012802D10220BDE8F0816A
:102E900001201B49087600BF4CF25030FEF732FB90
:102EA0008046B8F1000F23D126B9E1B23846FEF7CB
:102EB0008BFA12E0012E04D1A1B23846FEF7AEFA29
:102EC0000BE0022E04D121463846FEF7BBFA04E09F
:102ED00022462B463846FEF789FA4CF25030FEF770
:102EE00011FB80460748006820F001000549086092
:102EF00000BF00200249087600BF4046C6E7000038
:102F00009C100020103C024000200949096801F093
:102F1000004159B10749064A0C3A1160064911604F
:102F20000349096801F0004101B101207047000028
:102F3000103C024023016745AB89EFCDF8B502464E
:102F40000B460025002400200021D6E0012606FAC9
:102F500001F51E6806EA0504AC4274D11E7906F03C
:102F60000306012E04D01E7906F00306022E13D1AB
:102F700090684F000326BE40B0434F00DE68BE405D
:102F800030439060506801268E40B0431E79C6F3EE
:102F900000168E40304350601E7906F00306032E63
:102FA00009D0D0684F000326BE40B0434F009E6852
:102FB000BE403043D0601E7906F00306022E13D1C6
:102FC000CF0802F1200656F827004E07F70E0F260D
:102FD000BE40B0434F07FF0E1E69BE403043CF08CE
:102FE00002F1200646F8270010684F000326BE4075
:102FF000B0431E7906F003064F00BE403043106018
:103000005E6806F44036002E76D000BF002600969B
:103010003C4E366846F480463A4F3E603E4636683F
:1030200006F48046009600BF00BF374E8F0856F862
:1030300027008E07370F0F26BE40B043334EB242F3
:1030400002D1002624E057E0314EB24201D10126E0
:103050001EE0304EB24201D1022619E02E4EB2429D
:1030600001D1032614E02D4EB24201D104260FE017
:103070002B4EB24201D105260AE02A4EB24201D1BE
:10308000062605E0284EB24201D1072600E00826B8
:103090008F073F0FBE4030431B4E8F0846F8270076
:1030A000224E3068A0435E6806F4801606B12043C5
:1030B0001E4E3060361D3068A0435E6806F4001670
:1030C00006B12043194E361D3060184E361F306849
:1030D000A0435E6806F4003606B12043134E361F47
:1030E0003060361F3068A0435E6806F4803606B153
:1030F00020430E4E083E3060491C1029FFF426AFD5
:10310000F8BD000044380240083801400000024089
:103110000004024000080240000C0240001002407F
:103120000014024000180240001C0240083C01400C
:10313000024613690B400BB1012000E000207047EC
:103140000AB1816101E00B048361704701480068A6
:1031500070470000340000200348006803490978E4
:103160000844014908607047340000203C000020FA
:1031700010B50D48006840F400700B49086008461F
:10318000006840F4806008600846006840F4807081
:103190000860032000F0E0F8022000F007F800F0DB
:1031A0005FF8002010BD0000003C02402DE9F04116
:1031B00088B004460027B84600BF0020019024488C
:1031C000006840F00100224908600846006800F0ED
:1031D0000100019000BF00BF02A903A800F0A8F9F8
:1031E000069F1FB900F0CCF9054602E000F0C8F9CF
:1031F00045001848B5FBF0F0A0F101084FF0804001
:103200001549086040F2E7311348C160C0F80480F6
:10321000002101618160816100F0D2FC064696B90F
:103220000D4800F0C3FD06466EB91C2000F042F8C0
:10323000102C07D2002221461C2000F04FF807482E
:10324000046000E00126304608B0BDE8F0810000CF
:103250004038024040420F00541000203800002047
:1032600008B500BF002000901148006840F480407D
:103270000F4908600846006800F48040009000BFD5
:1032800000BF00BF00200090081F006840F0805081
:10329000091F08600846006800F08050009000BFD9
:1032A00000BF00220F21901E00F018F808BD00009A
:1032B000443802400146084600280DDB00BF00BF2D
:1032C00000F01F0301229A4043099B0003F1E02311
:1032D000C3F8002100BF00BF00BF70472DE9F05FB9
:1032E00080460D461646002704F076FD074639460F
:1032F0002A46334601F00700C0F1070ABAF1040F6D
:1033000002D94FF0040A01E0C0F1070AD14600F1EA
:10331000040ABAF1070F02D24FF0000A01E0A0F14F
:10332000030AD4464FF0010A0AFA09FAAAF1010A7F
:103330000AEA020A0AFA0CFA4FF0010B0BFA0CFB2C
:10334000ABF1010B0BEA030B4AEA0B0421464046A2
:1033500004F04AFDBDE8F09F00BF00F00702064BF5
:1033600019684FF6FF031940044B0B4343EA02214F
:10337000014B196000BF70470CED00E00000FA053A
:1033800000BFBFF34F8F0748006800F4E0600649B4
:103390000843001D03490860BFF34F8F00BF00BF03
:1033A00000BFFDE70CED00E00000FA0570B5044633
:1033B0000D460CB9012070BD5848006800F00700A8
:1033C000A84209D255490D700846006800F0070070
:1033D000A84201D00120EEE7207800F00200022888
:1033E0001DD1207800F00400042805D14C48006865
:1033F00040F4E0504A490860207800F008000828AE
:1034000005D14748006840F4604045490860444899
:10341000006820F0F000A168084341490860207866
:1034200000F00100A8B36068012807D13C480838C3
:103430000068C0F34040B8B90120BCE760680228CA
:1034400002D06068032807D1354808380068C0F307
:10345000406048B90120AEE7314808380068C0F341
:10346000400008B90120A6E72D48006820F00300BD
:10347000616808432A490860FFF768FE064609E0CC
:10348000FFF764FE801B41F28831884202D9032095
:1034900091E707E02248006800F00C006168B0EB9B
:1034A000810FEDD11D48006800F00700A84209D93E
:1034B0001A490D700846006800F00700A84201D0C4
:1034C000012078E7207800F00400042807D1144890
:1034D000006820F4E050E168084311490860207852
:1034E00000F00800082808D10D48006820F460406A
:1034F000216940EAC1000A49086000F061F8084902
:103500000968C1F30311074A515CC84006490860C5
:1035100006480068FFF74AFE00204CE7003C0240E6
:103520000838024000BA000840000020380000209F
:103530000F2202600D4A126802F0030242600B4A39
:10354000126802F0F0028260084A126802F4E05247
:10355000C260064A126802F46042D2080261044A5C
:10356000126802F007020A60704700000838024043
:10357000003C024001480068704700004000002005
:1035800000B5FFF7F7FF04490968C1F38221034A38
:10359000515CC84000BD00000838024010BA000865
:1035A00000B5FFF7E7FF04490968C1F34231034A58
:1035B000515CC84000BD00000838024010BA000845
:1035C0002DE9F047002400250026A1462548006883
:1035D00000F00C0020B1042805D008283AD105E0FD
:1035E000DFF8849039E0DFF8809036E01D48001F56
:1035F000006800F03F041B48001F006800F48000D2
:1036000078B119481749091F0968C1F38811A0FB4F
:1036100001700146224600233846FCF731FE05467C
:103620000EE011480F49091F0968C1F38811A0FB7A
:1036300001700146224600233846FCF721FE05466C
:103640000848001F0068C0F30140401C4600B5FB5D
:10365000F6F902E0DFF8109000BF00BF4846BDE871
:10366000F0870000083802400024F400F8B5044652
:103670000CB90120F8BD207800F00100002874D0BA
:10368000F948006800F00C0004280DD0F6480068E6
:1036900000F00C00082813D1F348001F006800F464
:1036A0008000B0F5800F0BD1EF4808380068C0F3F8
:1036B0004040002859D06068002856D10120D9E741
:1036C00000BF6068B0F5803F08D1E748083800685F
:1036D00040F48030E449083908601EE06068B0F5C5
:1036E000A02F0DD1E0480838006840F48020DE4962
:1036F000083908600846006840F4803008600CE033
:10370000D9480838006820F48030D7490839086063
:103710000846006820F48020086000BF606890B10F
:10372000FFF714FD054606E0FFF710FD401B642877
:1037300001D903209EE7CC4808380068C0F3404018
:103740000028F1D011E0FFF701FD054606E0FFF784
:10375000FDFC401B642801D903208BE7C2480838D0
:103760000068C0F340400028F1D1207800F002004A
:1037700002285FD1BC48006800F00C0058B1BA487C
:10378000006800F00C0008281CD1B748001F006832
:1037900000F48000B0B9B44808380068C0F34000B5
:1037A00020B1E068012801D0012063E7AE48083865
:1037B000006820F0F800216940EAC100AA490839F0
:1037C000086037E0E06800B30120A8490860FFF70F
:1037D000BDFC054606E0FFF7B9FC401B022801D9F5
:1037E000032047E7A04808380068C0F340000028DD
:1037F000F1D09D480838006820F0F800216940EABF
:10380000C10099490839086014E000209749086010
:10381000FFF79CFC054606E0FFF798FC401B0228DA
:1038200001D9032026E7904808380068C0F340001B
:103830000028F1D1207800F0080008282CD1606918
:10384000A8B101208A490860FFF780FC054606E020
:10385000FFF77CFC401B022801D903200AE78248BD
:103860006C300068C0F340000028F1D014E0002064
:103870007F490860FFF76AFC054606E0FFF766FC33
:10388000401B022801D90320F4E677486C30006819
:10389000C0F340000028F1D1207800F00400042893
:1038A00070D1002770483830006800F0805090B91F
:1038B00000BF002000906C483830006840F0805015
:1038C0006949383108600846006800F0805000906F
:1038D00000BF00BF01276748006800F48070B0B9DE
:1038E0006448006840F4807062490860FFF72EFC6D
:1038F000054606E0FFF72AFC401B022801D90320F9
:10390000B8E65C48006800F480700028F2D000BF80
:10391000A068012808D154486830006840F00100D0
:103920005149683108601DE0A06805280DD14E4856
:103930006830006840F004004B4968310860084670
:10394000006840F0010008600CE0474868300068FB
:1039500020F001004449683108600846006820F002
:103960000400086000BFA068A8B1FFF7EFFB0546A0
:1039700009E0FFF7EBFB401B41F28831884202D996
:10398000032077E626E0384868300068C0F340003E
:103990000028EED013E0FFF7D9FB054608E0FFF75B
:1039A000D5FB401B41F28831884201D9032061E6F2
:1039B0002D4868300068C0F340000028EFD1012F87
:1039C00007D129483830006820F080502649383126
:1039D000086000BFA069002845D02348006800F0B7
:1039E0000C0008285DD0A069022845D100201F499D
:1039F0000866FFF7ABFB054606E0FFF7A7FB401B99
:103A0000022801D9032035E6174808380068C0F3BA
:103A100040600028F1D1D4E907010843616A40EA17
:103A200081110122A06AC2EB500041EA00412C2022
:103A3000005D41EA00600C49091F086001200B4944
:103A40000866FFF783FB054606E0FFF77FFB401B98
:103A5000022801D903200DE6034808380068C0F3A6
:103A600040600028F1D049E0083802400000474299
:103A7000800E474200700040002021490866FFF791
:103A800065FB054606E0FFF761FB401B022801D9F4
:103A90000320EFE51B480068C0F340600028F2D126
:103AA0002CE0A069012800D1E4E51648001D066855
:103AB000A069012820D006F48001E06981421BD171
:103AC00006F03F01206A814216D147F6C0703040AF
:103AD000616AB0EB811F0FD106F440310122A06A68
:103AE000C2EB5000B1EB004F06D106F070612C2004
:103AF000005DB1EB006F01D00120BBE50020B9E50E
:103B000000004742003802407047704730B5024617
:103B10000B4600BF92F83C00012801D1022030BDC5
:103B2000012082F83C0000BF022082F83D001068AE
:103B300044681068816824F07004186804431068B1
:103B40004460184D1068A8421BD01068B0F1804F37
:103B500017D0154D1068A84213D0144D1068A84214
:103B60000FD0134D1068A8420BD0124D1068A84218
:103B700007D0114D1068A84203D0104D1068A8421C
:103B800005D121F08001586801431068816001204F
:103B900082F83D0000BF002082F83C0000BF00BF5B
:103BA000BDE70000000001400004004000080040A4
:103BB000000C00400004014000400140001800409B
:103BC00010B504460CB9012010BD94F83D0028B989
:103BD000002084F83C00204600F026F8022084F8FB
:103BE0003D00211D206803F05DF8012084F84600A7
:103BF00000BF84F83E0001213F20015540200155BF
:103C00004120015500BF00BF012084F8420043203D
:103C10000155442001554520015500BF012084F87D
:103C20003D000020D0E7000038B504465849206820
:103C3000884218D100BF002000905648006840F02C
:103C40000200544908600846006800F00200009035
:103C500000BF00BF002205211D20FFF73FFB1D20F4
:103C6000FFF728FB93E04C492068884218D100BF39
:103C7000002000904748006840F004004549086073
:103C80000846006800F00400009000BF00BF00225A
:103C900005211E20FFF722FB1E20FFF70BFB76E01D
:103CA0003E492068884218D100BF00200090394862
:103CB000006840F00800374908600846006800F0D6
:103CC0000800009000BF00BF002205213220FFF74E
:103CD00005FB3220FFF7EEFA59E0314920688842AF
:103CE0001AD100BF002000902A48001D006840F44F
:103CF00080302849091D08600846006800F48030BB
:103D0000009000BF00BF002205211820FFF7E6FA4F
:103D10001820FFF7CFFA3AE02249206888421AD1EA
:103D200000BF002000901B48001D006840F40030D8
:103D30001849091D08600846006800F4003000902A
:103D400000BF00BF002205211920FFF7C7FA192084
:103D5000FFF7B0FA1BE014492068884217D100BF72
:103D6000002000900B48006840F0400009490860BE
:103D70000846006800F04000009000BF00BF00222D
:103D800005212B20FFF7AAFA2B20FFF793FA38BD65
:103D9000000400404038024000080040000C004091
:103DA000004001400044014000180040014691F8E5
:103DB0003D00012801D001207047022081F83D001C
:103DC0000868C06840F001000B68D8601A4B0868AA
:103DD00098421BD00868B0F1804F17D0174B086885
:103DE000984213D0164B086898420FD0154B0868BC
:103DF00098420BD0144B0868984207D0134B0868C0
:103E0000984203D0124B086898420CD10868806829
:103E100000F00702062A0CD00868006840F0010094
:103E20000B68186005E00868006840F001000B6846
:103E300018600020C0E700000000014000040040BE
:103E400000080040000C0040000401400040014018
:103E5000001800402DE9F04104460D46002700BF40
:103E600094F83C00012802D10220BDE8F081012035
:103E700084F83C0000BF022084F83D00206886687A
:103E800026F0770626F47F4620688660286850284A
:103E900033D00CDC202850D004DC00284BD0102874
:103EA00051D149E0302849D040284CD139E0602830
:103EB0002DD0702807D0B0F5805F03D0B0F5005F3B
:103EC00041D10DE041E0D5E902136A68206802F0B3
:103ED0005DFF2068866846F077062068866034E0DB
:103EE000D5E902136A68206802F050FF20688068F4
:103EF00040F480402168886027E0EA6869682068AB
:103F000003F034F85021206802F04BFF1DE0EA680E
:103F10006968206803F03DF86021206802F041FFE5
:103F200013E0EA686968206803F020F840212068FF
:103F300002F037FF09E000BF00BF00BF296820681A
:103F400002F02FFF01E0012700BF00BF012084F82D
:103F50003D0000BF002084F83C0000BF384684E7E5
:103F6000704770B504462068C5682068066906F089
:103F70000200022819D105F00200022815D1401FC5
:103F800021680861012020772068806900F0030023
:103F900018B12046FFF7E4FF05E0204600F034F9B1
:103FA000204600F0E8F90020207706F004000428FD
:103FB00019D105F00400042815D1C0432168086117
:103FC000022020772068806900F4407018B12046F4
:103FD000FFF7C6FF05E0204600F016F9204600F086
:103FE000CAF90020207706F00800082819D105F04A
:103FF0000800082815D1C0432168086104202077F3
:104000002068C06900F0030018B12046FFF7A8FF40
:1040100005E0204600F0F8F8204600F0ACF900205A
:10402000207706F01000102819D105F01000102894
:1040300015D1C04321680861082020772068C06935
:1040400000F4407018B12046FFF78AFF05E02046D3
:1040500000F0DAF8204600F08EF90020207706F014
:10406000010048B105F0010030B16FF00100216896
:104070000861204600F080F906F08000802809D110
:1040800005F08000802805D1C043216808612046E2
:10409000FFF73AFD06F04000402809D105F0400046
:1040A000402805D1C04321680861204600F084F90A
:1040B00006F02000202809D105F02000202805D195
:1040C000C043216808612046FFF71FFD70BD000056
:1040D00010B586B00446142101A8FCF71BF943492A
:1040E000206888423BD100BF002000904048006813
:1040F00040F008003E4908600846006800F00800EB
:10410000009000BF00BF00BF00200090084600687C
:1041100040F0020008600846006800F002000090CD
:1041200000BF00BF4FF440500190022002900020D9
:10413000039004900220059001A92E48FEF7FEFE90
:104140004FF44070019002200290002003900490F0
:104150000220059001A92848FEF7F0FE43E0274918
:10416000206888421DD100BF0020009020480068D0
:1041700040F010001E4908600846006800F010007A
:10418000009000BF00BF602001900220029000203C
:10419000039004900320059001A91948FEF7CEFE74
:1041A00021E01849206888421DD100BF00200090FE
:1041B0000F48006840F002000D490860084600689A
:1041C00000F00200009000BF00BF4FF4404001909B
:1041D000022002900020039004900920059001A97C
:1041E0000548FEF7ABFE06B010BD00000008004019
:1041F00030380240000C0240000402400040014000
:10420000001002400018004070472DE9F0410446BC
:104210000D461646002700BF94F83C00012802D145
:104220000220BDE8F081012084F83C0000BF36B1D7
:10423000042E1BD0082E31D00C2E5ED145E029462D
:10424000206802F0B7FD2068806940F0080021680E
:1042500088612068806920F00400216888612068F6
:104260008069296908432168886148E029462068F7
:1042700002F0D8FD2068806940F400602168886100
:104280002068806920F480602168886120688069E6
:10429000296940EA01202168886130E029462068C8
:1042A00002F0FEFD2068C06940F008002168C86186
:1042B0002068C06920F004002168C8612068C069D6
:1042C000296908432168C86119E02946206802F07D
:1042D00023FE2068C06940F400602168C86120683E
:1042E000C06920F480602168C8612068C0692969BC
:1042F00040EA01202168C86101E0012700BF00BF3A
:1043000000BF002084F83C0000BF384689E710B5A4
:1043100004460CB9012010BD94F83D0028B90020D6
:1043200084F83C00204600F025F8022084F83D0087
:10433000211D206802F0B6FC012084F8460000BF71
:1043400084F83E0001213F200155402001554120C5
:10435000015500BF00BF012084F8420043200155F1
:10436000442001554520015500BF012084F83D003F
:104370000020D0E77047704710B504460C4920680C
:1043800088420ED10B48036840685A1C40F1000077
:1043900008490A60486001F0F9FA01F0D9FE02F01C
:1043A0000CFE2068B0F1804F01D1FEF7D5FE10BDA4
:1043B00000040040000000207047704710B504461C
:1043C00000BF00BF21680C3151E8001F21F490703C
:1043D00021680C3141E80002002AF3D100BF00BF80
:1043E00000BF2168143151E8001F21F0010021684D
:1043F000143141E80002002AF3D100BF206B0128EC
:104400000ED100BF00BF21680C3151E8001F21F020
:10441000100021680C3141E80002002AF3D100BFEE
:104420002068406900F04000402820D100BF00BF54
:104430002168143151E8001F21F040002168143137
:1044400041E80002002AF3D100BFE06B78B1002000
:10445000E16B0865E06BFEF75EFA40B1E06BFEF7DA
:10446000C4FA202803D110206064032010BD00206E
:10447000E085202084F842000020206300BFF5E79B
:10448000704700002DE9F84F044620680568206851
:10449000C668206847694FF00009CA4605F00F0951
:1044A000B9F1000F0AD105F0200038B106F0200064
:1044B00020B1204602F04AFFBDE8F88FB9F1000FA5
:1044C0007CD007F0010018B906F49070002875D070
:1044D00005F0010030B106F4807018B1606C40F056
:1044E0000100606405F0040030B107F0010018B16C
:1044F000606C40F00200606405F0020030B107F02B
:10450000010018B1606C40F00400606405F0080020
:1045100048B106F0200010B907F0010018B1606C36
:1045200040F008006064606C002846D005F0200070
:1045300028B106F0200010B1204602F007FF2068E5
:104540004069C0F3801A606C00F0080010B9BAF13D
:10455000000F2DD0204602F0A0FE2068406900F038
:104560004000402820D100BF00BF2168143151E82D
:10457000001F21F040002168143141E80002002AA8
:10458000F3D100BFE06B50B17748E16B0865E06B99
:10459000FEF717FA88B1E06B016D88470DE0204601
:1045A000FFF76EFF09E009E02046FFF769FF04E02E
:1045B0002046FFF765FF002060647DE7206B01283F
:1045C00078D105F01000002874D006F01000002803
:1045D000FAD000BF0020009020680068009020689A
:1045E0004068009000BF00BF2068406900F04000B4
:1045F000402860D1E06B006840681FFA80F8B8F18D
:10460000000F56D0A08D404553DDA4F82E80E06BFE
:10461000C069B0F5807F43D000BF00BF21680C3176
:1046200051E8001F21F4807021680C3141E800023C
:10463000002AF3D100BF00BF00BF2168143151E848
:10464000001F21F001002168143141E80002002A16
:10465000F3D100BF00BF00BF2168143151E8001F33
:1046600021F040002168143141E80002002AF3D112
:1046700000BF202084F842000020206300BF00BF5C
:1046800021680C3151E8001F21F0100021680C3125
:1046900041E80002002AF3D100BFE06BFEF73BF9CE
:1046A00002206063A08DE28D801A81B22046FFF760
:1046B00084FE01E742E0A08DE18D401A1FFA80F8E8
:1046C000E08DD0B3B8F1000F37D000BF00BF216834
:1046D0000C3151E8001F21F4907021680C3141E841
:1046E0000002002AF3D100BF00BF00BF21681431CF
:1046F00051E8001F21F001002168143141E8000257
:10470000002AF3D100BF202084F84200002020635B
:1047100000BF00BF21680C3151E8001F21F01000DC
:1047200021680C3141E80002002AF3D100BF0220C9
:10473000606341462046FFF740FEBDE605F080007D
:1047400030B106F0800018B1204602F0F7FFB3E662
:1047500005F0400030B106F0400018B1204602F0EC
:10476000D2FDA9E600BFA7E6F970000810B504461F
:104770000CB9012010BDA06900B100E000BF94F8A1
:10478000410028B9002084F84000204600F02AF8B3
:10479000242084F841002068C06820F4005021687B
:1047A000C860204602F050FE2068006920F4904066
:1047B000216808612068406920F02A00216848616A
:1047C0002068C06840F400502168C8600020606420
:1047D000202084F8410084F842000020606300BF7C
:1047E000C8E7000010B586B00446142101A8FBF705
:1047F00091FDFE49206888427ED100BF00200090D4
:10480000FB48006840F40020F94908600846006849
:1048100000F40020009000BF00BF00BF0020009007
:10482000F3481038006840F00100F1491039086081
:104830000846006800F00100009000BF00BF00BF04
:10484000002000900846006840F004000860084618
:10485000006800F00400009000BF00BF012001903C
:10486000022002900020039003200490082005906D
:1048700001A9E048FEF762FB4FF4006001900220BE
:10488000029000200390032004900820059001A9C5
:10489000D948FEF753FBD948D9490860400548601C
:1048A0000021D7488160C1604FF48061016100211F
:1048B00041618161C16101624162FEF7B9F908B1EC
:1048C000FCF7FCFC00BFCE48E063846300BFCB482C
:1048D0003030CC4908604FF0006048604021C94842
:1048E00081600021C1604FF480610161002141615C
:1048F0008161C161016200E013E04162FEF798F955
:1049000008B1FCF7DBFC00BFBE48A063846300BFB6
:10491000002205213420FEF7E1FC3420FEF7CAFC1A
:10492000A6E2B949206888427ED100BF00200090ED
:10493000AF48006840F48010AD4908600846006840
:1049400000F48010009000BF00BF00BF0020009066
:10495000A7481038006840F00400A54910390860E5
:104960000846006800F00400009000BF00BF00BFD0
:10497000002000900846006840F0080008600846E3
:10498000006800F00800009000BF00BF881401908C
:10499000022002900020039003200490082005903C
:1049A00001A99548FEF7CAFA04200190022002905E
:1049B00000200390032004900820059001A993484B
:1049C000FEF7BCFA8D48303891490860C005486050
:1049D00000218F488160C1604FF480610161002136
:1049E00041618161C16101624162FEF721F908B153
:1049F000FCF764FC00BF8648E063846300BF7F4827
:104A00007830844908604FF0006048604021814858
:104A100081600021C1604FF480610161002141612A
:104A20008161C161016200E013E04162FEF700F9BB
:104A300008B1FCF743FC00BF7648A063846300BF65
:104A4000002205213520FEF749FC3520FEF732FC17
:104A50000EE271492068884278D100BF00200090A2
:104A60006348001D006840F010006149091D08609E
:104A70000846006800F01000009000BF00BF00BFB3
:104A8000002000905A481038006840F00100584952
:104A9000103908600846006800F00100009000BF6F
:104AA00000BF4FF4C06001900220029000200390EC
:104AB000032004900720059001A94E48FEF73EFA16
:104AC0005648574908604FF000604860002154483C
:104AD0008160C1604FF480610161002141618161A9
:104AE000C16101624162FEF7A3F808B1FCF7E6FB81
:104AF00000BF4B48E063846300BF484878304949B1
:104B000008604FF000604860402146488160002105
:104B1000C1604FF480610161002141618161C16127
:104B200001624162FEF784F808B1FCF7C7FB00BFE1
:104B30003C48A063846300BF002205212520FEF7C6
:104B4000CDFB2520FEF7B6FB92E1FFE73649206852
:104B500088426DD100BF002000902548006840F4D5
:104B60000030234908600846006800F400300090D7
:104B700000BF00BF00BF002000901D481038006833
:104B800040F001001A49103908600846006800F03A
:104B90000100009000BF00BF0C2001900220029095
:104BA00000200390032004900720059001A91148DC
:104BB000FEF7C4F9114848301C4908604FF0006006
:104BC0004860002119488160C1604FF48061016133
:104BD000002141618161C16101624162FEF728F8F3
:104BE00008B1FCF76BFB00BF104822E0004C00400E
:104BF000403802400000024000080240406002408D
:104C0000D40B0020340C002000500040000C024067
:104C1000940C0020F40C002000100140406402407D
:104C2000540D0020B40D002000440040140E00205C
:104C300029E0E063846300BF8E488F4908604FF02D
:104C40000060486040218C4881600021C1604FF4C1
:104C500080610161002141618161C1610162416244
:104C6000FDF7E6FF08B1FCF729FB00BF8248A0630F
:104C7000846300BF002205212620FEF72FFB26209B
:104C8000FEF718FBF4E07D492068884277D100BF29
:104C9000002000907A48006840F48020784908603D
:104CA0000846006800F48020009000BF00BF00BFED
:104CB0000020009072481038006840F002007049EF
:104CC000103908600846006800F00200009000BF3C
:104CD00000BF4FF44060019002200290002003903A
:104CE000032004900720059001A96648FEF726F9E5
:104CF00060487838644908604FF0006048600021DF
:104D000061488160C1604FF48061016100214161AF
:104D10008161C16101624162FDF78AFF08B1FCF760
:104D2000CDFA00BF5848E063846300BF514848385B
:104D3000564908604FF00060486040215348816048
:104D40000021C1604FF480610161002141618161F6
:104D5000C16101624162FDF76BFF08B1FCF7AEFA79
:104D600000BF4A48A063846300BF002205212720BA
:104D7000FEF7B4FA2720FEF79DFA79E0FFE74449F1
:104D80002068884274D100BF002000903C48001D7C
:104D9000006840F020003A49091D08600846006894
:104DA00000F02000009000BF00BF00BF0020009076
:104DB00033481038006840F0040031491039086069
:104DC0000846006800F00400009000BF00BFC0204B
:104DD00001900220029000200390032004900820FC
:104DE000059001A92B48FEF7A9F82B482B4908602C
:104DF0004FF0206048604021284881600021C16058
:104E00004FF480610161002141618161C1610162F2
:104E10004162FDF70DFF08B1FCF750FA00BF1F48D3
:104E2000A063846300BF1C4878381D490860800572
:104E3000486000211A488160C1604FF480610161BF
:104E4000002141618161C16101624162FDF7F0FEB3
:104E500008B1FCF733FA00BF1148E063846300BF78
:104E6000002205214720FEF739FA4720FEF722FAF3
:104E700006B010BDA0600240740E00200048004043
:104E80004038024000040240D40E0020340F0020BD
:104E90000014014000080240A0640240940F00206A
:104EA000F40F002070B504460D46164694F84200F3
:104EB00020280BD105B10EB9012070BD0020206360
:104EC00032462946204602F0D5FBF6E70220F4E7F9
:104ED00070477047F7B50446154694F841002028FE
:104EE00039D1019800B10DB90120FEBD01982062B1
:104EF000A584E58400206064212084F841001748DF
:104F0000A16BC8631648A16B08641648A16BC864FE
:104F10000020A16B086501AE23681A1D31682B467D
:104F2000A06BFDF7FBFE6FF04000216808602020B9
:104F300084F8410000BF00BF2168143151E8001F10
:104F400041F080002168143141E80002002AF3D1C9
:104F500000BF0020C9E70220C7E700003572000843
:104F60008D7200080D7100087047704700BFFEE7A2
:104F70002DE9F04104460026002714B9701EBDE853
:104F8000F081664821680160217901712078A528A7
:104F900071D10521204602F067FE01286CD16078AE
:104FA00000F109052946204602F03EFE0128F5D110
:104FB00001266079A17940EA012740F20321781A9D
:104FC0008F4260D016DCB7F5827F42D00ADC012F19
:104FD00023D0022F2DD0032F2FD0A7F201100028AD
:104FE00026D130E0A7F2051090B3FC283DD0FD2873
:104FF000F6D142E0052863D008DC012849D0022818
:105000004BD003284ED0042875D14FE006285FD03E
:10501000072862D0FE286ED167E0414854F8071F88
:1050200001606168416021890181A17AE41F817278
:1050300061E03C48E17901705DE02022E11D3A48E1
:10504000FBF74FF957E03948D4F80710016052E0F8
:1050500004E03748B4F8071001804CE03548B4F854
:1050600007100180617A817045E01B22E11D324802
:10507000FBF737F93FE04FE03EE01022E11D2F48FB
:10508000FBF72FF937E01022E11D2D48FBF729F936
:1050900031E02C48E17901702DE02B48B4F807107D
:1050A000018028E02948E179017000BF2848D4F840
:1050B00007100160B4F80B108180617B81711AE0E8
:1050C0002448D4F807100160B4F80B10818012E076
:1050D0002148D4F8071001600DE02048D4F80710EB
:1050E0000160B4F80B10818005E01422E11D1C481A
:1050F000FBF7F7F800BF00BF0848B0F80110E01D4B
:1051000008448078A52807D10449B1F80120E11DA1
:105110001144881CFFF72CFF304630E7E0000020E8
:10512000AC500020E5000020B7500020E90000202E
:10513000F1000020F3000020D7500020F2500020A2
:1051400002510020F6000020F7000020F8000020A7
:10515000F900002000010020060100200A010020C3
:105160000E51002010B50E480E4908600620486018
:1051700000210C488160C1604FF4003101610901D8
:105180004161002101760121417600218176C176BD
:1051900001774177FDF7AFF908B1FCF78FF810BD43
:1051A000006400402408002010B50E480E49086035
:1051B0000620486000210C488160C1604FF4003136
:1051C000016109014161002101760121417600213F
:1051D0008176C17601774177FDF78DF908B1FCF74B
:1051E0006DF810BD006800404C08002008B500BFF5
:1051F000002000903E48006840F400103C490860E0
:105200000846006800F40010009000BF00BF00BF17
:10521000002000900846006840F4800008600846BE
:10522000006800F48000009000BF00BF002205214C
:105230000B20FEF753F80B20FEF73CF80022052167
:105240000C20FEF74BF80C20FEF734F80022052165
:105250000D20FEF743F80D20FEF72CF80022052163
:105260000E20FEF73BF80E20FEF724F80022052161
:105270000F20FEF733F80F20FEF71CF8002205215F
:105280001020FEF72BF81020FEF714F8002205215D
:105290001120FEF723F81120FEF70CF8002205215B
:1052A0002F20FEF71BF82F20FEF704F8002205211F
:1052B0003920FEF713F83920FDF7FCFF0022052105
:1052C0003A20FEF70BF83A20FDF7F4FF0022052103
:1052D0004520FEF703F84520FDF7ECFF00220521ED
:1052E0004620FDF7FBFF4620FDF7E4FF08BD000068
:1052F0003038024000B5B9B01C22324932A8FAF762
:10530000F0FF002132A803F0B4FD2F49086004F03B
:10531000F5FF1C222B491C312BA8FAF7E2FF0021D4
:105320002BA803F0A6FD294908601C222549383125
:1053300024A8FAF7D6FF002124A803F09AFD2449F7
:1053400008601C221F4954311DA8FAF7CAFF00212A
:105350001DA803F08EFD1F4908601C2219497031F9
:1053600016A8FAF7BEFF002116A803F082FD1A491D
:1053700008601C2213498C310FA8FAF7B2FF0021F4
:105380000FA803F076FD154908601C220D49A831CD
:1053900008A8FAF7A6FF002108A803F06AFD104943
:1053A00008601C220749C43101A8FAF79AFF0021BE
:1053B00001A803F05EFD0B49086004F0C9FF39B095
:1053C00000BD000018B90008080000200C000020F3
:1053D00014000020180000201C00002028000020DD
:1053E000200000202C00002000B587B0142102A866
:1053F000FAF790FF00BF002001904448006840F099
:105400001000424908600846006800F01000019052
:1054100000BF00BF00BF002001900846006840F0B8
:10542000800008600846006800F08000019000BF1E
:1054300000BF00BF002001900846006840F0010056
:1054400008600846006800F00100019000BF00BF3E
:1054500000BF002001900846006840F0020008608C
:105460000846006800F00200019000BF00BF00BFC6
:10547000002001900846006840F0080008600846D7
:10548000006800F00800019000BF00BF00BF0020CE
:1054900001900846006840F0040008600846006873
:1054A00000F00400019000BF00BF002289141848DA
:1054B000FDF746FE00224FF400611648FDF740FE5E
:1054C0004FF480500290012003900020049005903A
:1054D00002A90F48FDF732FD4FF400600290012051
:1054E000039000200490059002A90A48FDF726FDCC
:1054F0004FF440400290002003900120049002A944
:105500000448FDF71BFD07B000BD00003038024025
:1055100000100240000C024010B50A480A49086019
:10552000002048600021084881604FF6FF71C1608B
:10553000002101618161FEF743FB08B1FBF7BEFE6C
:1055400010BD0000004401409409002000B58BB05C
:1055500000200790089009900A901C216846FAF7ED
:10556000D9FE1F481F4908605320486000211D488C
:1055700081604FF6FF71C160002101618161FEF71A
:105580001FFB08B1FBF79AFE4FF48050079007A964
:105590001448FEF75FFC08B1FBF790FE1148FEF7D8
:1055A000B6FE08B1FBF78AFE602000900020019053
:1055B00002900490002269460A48FEF726FE08B1D0
:1055C000FBF77CFE042269460648FEF71EFE08B182
:1055D000FBF774FE0348FEF77BFD0BB000BD000037
:1055E00000180040DC09002000B587B000200390BF
:1055F00004900590069001900290144814490860A8
:105600005320486000211248816040F2E731C160B8
:10561000002101618161FEF7D3FA08B1FBF74EFE6C
:105620004FF48050039003A90948FEF713FC08B11A
:10563000FBF744FE00200190029001A90448FEF708
:1056400065FA08B1FBF73AFE07B000BD0004004060
:105650007408002000B58DB0002009900A900B90CE
:105660000C90079008901C216846FAF753FE2C48CE
:105670002C490860A720486000212A4881604FF625
:10568000FF71C160002101618161FEF799FA08B1E3
:10569000FBF714FE4FF48050099009A92148FEF74A
:1056A000D9FB08B1FBF70AFE1E48FEF730FE08B131
:1056B000FBF704FE00200790089007A91948FEF7A1
:1056C00025FA08B1FBF7FAFD602000900020019058
:1056D00002900490002269461248FEF796FD08B138
:1056E000FBF7ECFD042269460E48FEF78EFD08B17B
:1056F000FBF7E4FD082269460A48FEF786FD08B17B
:10570000FBF7DCFD0C2269460648FEF77EFD08B17A
:10571000FBF7D4FD0348FEF7DBFC0DB000BD000035
:1057200000080040BC08002000B587B000200390AE
:105730000490059006900190029014481449086066
:1057400042F2CF004860002111488160491EC160CB
:10575000002101618161FEF733FA08B1FBF7AEFD6C
:105760004FF48050039003A90948FEF773FB08B17A
:10577000FBF7A4FD00200190029001A90448FEF768
:10578000C5F908B1FBF79AFD07B000BD000C004059
:105790000409002000B58BB0002007900890099004
:1057A0000A901C216846FAF7B5FD1F481F4908609A
:1057B000A720486000211D4881604FF6FF71C1603D
:1057C000002101618161FEF7FBF908B1FBF776FD6D
:1057D0004FF48050079007A91448FEF73BFB08B12F
:1057E000FBF76CFD1148FEF792FD08B1FBF766FD73
:1057F00060200090002001900290049000226946F1
:105800000A48FEF702FD08B1FBF758FD042269467D
:105810000648FEF7FAFC08B1FBF750FD0348FEF717
:1058200057FC0BB000BD0000004001404C090020B7
:1058300010B50B480B4908604FF4E1304860002177
:1058400008488160C16001610C21416100218161D2
:10585000C161FEF78BFF08B1FBF730FD10BD000002
:10586000004C0040240A002010B50B480B4908608A
:105870004FF4E1304860002108488160C160016157
:105880000C21416100218161C161FEF76FFF08B108
:10589000FBF714FD10BD0000005000406C0A002012
:1058A00010B50C480C4908600C4848604FF4805112
:1058B000094881600021C1604FF4806101610C21C1
:1058C000416100218161C161FEF750FF08B1FBF722
:1058D000F5FC10BD00100140B40A0020A0860100B4
:1058E00010B50B480B4908604FF4E13048600021C7
:1058F00008488160C16001610C2141610021816122
:10590000C161FEF733FF08B1FBF7D8FC10BD000002
:1059100000440040FC0A002010B50B480B49086009
:105920004FF4E1304860002108488160C1600161A6
:105930000C21416100218161C161FEF717FF08B1AF
:10594000FBF7BCFC10BD000000480040440B0020E9
:1059500010B50B480B4908604FF4E1304860002156
:1059600008488160C16001610C21416100218161B1
:10597000C161FEF7FBFE08B1FBF7A0FC10BD000003
:10598000001401408C0B002000BFFEE710B50F484B
:1059900001880088401C0D4A1080142915DD002064
:1059A000114608804FF400410948FDF7C1FB10B9CA
:1059B0000120084908704FF480410548FDF7B8FB05
:1059C00010B901200449087000BF10BD1E0100205D
:1059D000000C02401C0100201D01002008B503F04E
:1059E000DDF9009000BF1548007810B904F002FC02
:1059F0001FE01248007801281BD104F0C7FB1048B3
:105A0000B0F90400B0F5167F13DD0D48B0F90200BF
:105A1000B0F5167F0DDD0A48B0F9060010F5167FC7
:105A200007DA0748B0F9080010F5167F01DAFDF72C
:105A3000A7FC0A21684603F09EF9D4E76A0100201A
:105A40003650002000BFFEE710B52DED028B044656
:105A5000B0EE408AF0EE608A94F86D0000F08000AD
:105A600070B1204603F062F87820005D40B19FEDF0
:105A7000510A84ED0D0A9FED4F0ABDEC028B10BD5B
:105A800084ED058AC4ED008A94ED000AD4ED050A80
:105A900030EE600A84ED070A94ED070AB5EEC00AFD
:105AA000F1EE10FA02DD94ED070A03E094ED070A27
:105AB000B1EE400AD4ED120AB4EEE00AF1EE10FAAB
:105AC00065DD94ED020AD4ED070A20EE200A84ED8C
:105AD000090A94ED030AD4ED070A20EE200A84EDAA
