:020000040800F2
:10000000B0510020E902000873250008A922000869
:10001000712500081F060008A1310008000000003B
:10002000000000000000000000000000290200089D
:10003000F10700080000000085020008B927000849
:100040000303000803030008030300080303000878
:100050000303000803030008030300080303000868
:100060000303000803030008030300080303000858
:10007000210600082D06000839060008450600087C
:100080000303000803030008030300080303000838
:100090000303000803030008030300080303000828
:1000A0000303000803030008030300080303000818
:1000B0000303000803030008030300080303000808
:1000C00003030008030300080303000803030008F8
:1000D00003030008D530000803030008ED300008D2
:1000E00003030008030300080303000803030008D8
:1000F000030300088928000803030008030300081D
:1001000003030008030300080303000803030008B7
:10011000BD2C0008030300080303000803030008C4
:1001200003030008510600085D06000803030008E9
:100130000303000803030008030300080303000887
:100140000303000803030008030300080303000877
:100150000303000869060008750600080531000859
:100160000303000803030008030300080303000857
:100170000303000803030008030300080000000055
:10018000030300080303000800F002F800F03CF845
:100190000AA090E8000C82448344AAF10107DA45E2
:1001A00001D100F031F8AFF2090EBAE80F0013F0F8
:1001B000010F18BFFB1A43F001031847B8510000A4
:1001C000D8510000103A24BF78C878C1FAD8520735
:1001D00024BF30C830C144BF04680C6070470000C1
:1001E0000023002400250026103A28BF78C1FBD840
:1001F000520728BF30C148BF0B6070471FB505F0DC
:1002000063F81FBD10B510BD00F0D0F91146FFF71F
:10021000F5FF03F0AFF800F0EEF903B4FFF7F2FFDB
:1002200003BC00F0F5F900002C4B19680868B0E831
:10023000F04F80F30988BFF36F8F4FF0000080F319
:10024000118870470000000008480068006880F3CB
:1002500008884FF0000080F3148862B661B6BFF3DF
:100260004F8FBFF36F8F00DF00BF00BF08ED00E0CE
:10027000DFF80C00016841F470010160704700BFB5
:1002800088ED00E0EFF30980BFF36F8F134B1A681E
:100290001EF0100F08BF20ED108A20E9F04F10600B
:1002A00009B44FF0500080F31188BFF34F8FBFF3B4
:1002B0006F8F03F05DFF4FF0000080F3118809BCE1
:1002C00019680868B0E8F04F1EF0100F08BFB0ECD6
:1002D000108A80F30988BFF36F8F704728000020D1
:1002E000EFF3058070470000094880470948004740
:1002F000FEE7FEE7FEE7FEE7FEE7FEE7FEE7FEE7D6
:10030000FEE7FEE704480549054A064B7047000032
:100310007928000889010008B04B0020B051002066
:10032000B04D0020B04D002053EA020C00F069806F
:100330002DE9F04B4FF00006002B1FBFB3FA83F5F9
:1003400003FA05F424FA05F65E4012BF1643B2FA2A
:1003500082F502FA05F4C5F120051EBF22FA05FC5C
:1003600044EA0C04203556EA044C4FEA144418BF02
:10037000641C4FF000084FF00009904271EB030C31
:1003800039D3002919BFB1FA81F701FA07F6B0FA9B
:1003900080F700FA07F6C7F120071EBF20FA07FC16
:1003A00046EA0C062037B6FBF4FCA7EB0507103F26
:1003B00007F01F0BCBF120060CFA0BFB2CFA06F60C
:1003C00044BFB3460026202FA4BF5E464FF0000B6B
:1003D0005BEA060C08BF4FF0010B19EB0B09ABFBF6
:1003E000027C48EB0608C01B06FB02CC0BFB03CCCF
:1003F00071EB0C01C1E70B46024641464846BDE899
:10040000F08B13B54FF000004FF00001AFF3008008
:10041000BDE81C407047032A40F2308010F0030C06
:1004200000F0158011F8013BBCF1020F624498BF47
:1004300011F801CB00F8013B38BF11F8013BA2F1E4
:10044000040298BF00F801CB38BF00F8013B11F05F
:10045000030300F02580083AC0F0088051F8043BFF
:10046000083A51F804CBA0E80810F5E7121D5CBF6C
:1004700051F8043B40F8043BAFF30080D20724BF9F
:1004800011F8013B11F801CB48BF11F8012B24BF33
:1004900000F8013B00F801CB48BF00F8012B704782
:1004A00010B5203AC0F00B80B1E81850203AA0E80F
:1004B0001850B1E81850A0E81850BFF4F5AF5FEA43
:1004C000027C24BFB1E81850A0E8185044BF18C9F6
:1004D00018C0BDE810405FEA827C24BF51F8043B9D
:1004E00040F8043B08BF7047D20728BF31F8023BF1
:1004F00048BF11F8012B28BF20F8023B48BF00F885
:10050000012B704702F0FF0343EA032242EA024252
:1005100000F002B84FF000020429C0F0128010F081
:10052000030C00F01B80CCF1040CBCF1020F18BFCF
:1005300000F8012BA8BF20F8022BA1EB0C0100F062
:100540000DB85FEAC17C24BF00F8012B00F8012B35
:1005500048BF00F8012B70474FF0000200B513466A
:1005600094469646203922BFA0E80C50A0E80C50D3
:10057000B1F12001BFF4F7AF090728BFA0E80C5084
:1005800048BF0CC05DF804EB890028BF40F8042B7D
:1005900008BF704748BF20F8022B11F0804F18BFEA
:1005A00000F8012B7047704770477047754600F0A0
:1005B0002BF8AE4605006946534620F007008546F5
:1005C00018B020B5FFF79EFEBDE820404FF00006B2
:1005D0004FF000074FF000084FF0000B21F007012B
:1005E000AC46ACE8C009ACE8C009ACE8C009ACE86E
:1005F000C0098D46704710B50446AFF30080204611
:10060000BDE81040FFF709BE00487047504B00207E
:1006100001491820ABBEFEE7260002007047FEE746
:10062000014800F059B90000480A0020014800F0D4
:1006300053B90000C8080020014800F04DB900007F
:10064000A80A0020014800F047B90000280900204E
:10065000014800F041B90000080B0020014800F0FB
:100660003BB9000088090020014800F035B90000BE
:10067000680B0020014800F02FB90000E8090020B5
:1006800001681823CAB2103AB2FBF3F2054B6FF3BC
:100690000901032A9B5CC36500D9091D81650846D1
:1006A000704700003053000810B5014600208B69E8
:1006B0008A6A4FF0C07453B1B3F5005F15D072B1C0
:1006C000012A0CD0022A0AD0032A09D104E01AB167
:1006D000012A06D0022A03D1C96AC90100D5012026
:1006E00010BDC96AA142FAD010BD002AF7D0012A74
:1006F000F2D0022AF3D0032AF3D010BD30B504683B
:10070000256825F480252560046863608368402B94
:10071000036803D099600068C26030BD9A600068C9
:10072000C16030BD0B4A10EE100A12F8411F491C7F
:10073000C9B211700F290BD88900064A091FC9B226
:10074000030A50541144020C4B708A70000EC8709A
:1007500070470000420C002070B5044600F02EF8EF
:100760001549002091F841200F2A11D882B10423A5
:1007700003EB820301F8220001EB82028025507016
:1007800095707F25DBB2D57081F84030002209E0FA
:100790000023F9E723681D686D06FCD58D5C5D605C
:1007A000521CD2B291F840309342F3D881F8410004
:1007B00081F8400070BD0000420C00200A4810B5CE
:1007C000007800280ED1094C94ED000AFFF7AAFF2B
:1007D00094ED050AFFF7A6FF94ED0D0ABDE8104061
:1007E000FFF7A0BF10BD0000A4000020C84A0020F1
:1007F0007047000008B502F00AFE009003F0E6FA28
:100800000448FFF7A9FF03F001FB0221684602F04C
:10081000F2FDF3E7A807002072B6FEE72DE9F041EC
:100820000446876D00F0C2FA064694F835000025AC
:10083000022806D08020606584F834500120BDE88D
:10084000F0812068016821F016010160206841698B
:1008500021F080014161206C08B9A06C20B12068B2
:10086000016821F0080101602068016821F00101A0
:1008700001600CE000F09AFA801B052807D92020BF
:100880006065032084F8350084F83450D7E7206889
:100890000068C007EED194F85C103F208840B86033
:1008A000012084F8350084F834500020C7E790F820
:1008B0003510022903D080214165012070470521B0
:1008C00080F835100068016821F001010160002006
:1008D0007047406D704700002DE9F84304464FF023
:1008E0000009CDF8009063484FF41651A56D0068DB
:1008F000B0FBF1F72E6894F85C10082000FA01F1C3
:1009000031420FD021680A6852070BD50A6822F0DD
:1009100004020A6094F85C108840A860606D40F0A2
:100920000100606594F85C104FF0010808FA01F0CE
:10093000304208D021684969090604D5A860606D75
:1009400040F00200606594F85C100420884030425A
:1009500008D021680968890704D5A860606D40F057
:100960000400606594F85C1010208840304218D074
:1009700021680968090714D5A8602068016849033F
:1009800004D50068000308D5A16C07E00168C9051B
:1009900003D4016821F008010160216C09B12046EF
:1009A000884794F85C1020208840304231D021687C
:1009B0000968C9062DD5A86094F835000528206877
:1009C000016806D0490347D5006800031DD4616C57
:1009D0001CE021F0160101602068416921F08001CE
:1009E0004161206C08B9A06C20B12068016821F039
:1009F0000801016094F85C103F208840A86084F8EA
:100A0000358084F83490216D1FE0E16B09B12046F8
:100A10008847606D00282BD0606DC00714D005207A
:100A200084F835002068016821F001010160009818
:100A3000401C0090B84203D820680068C007F6D177
:100A400084F8358084F83490E16C002910D001B02E
:100A50002046BDE8F04308470168C905D5D40168C0
:100A600021F01001016084F8358084F83490CCE7DF
:100A7000BDE8F8831C0000202DE9F041044600F099
:100A800095F906465CB1022084F83500002584F80B
:100A900034502068016821F0010101600DE001205F
:100AA000BDE8F08100F082F9801B052805D92020DF
:100AB0006065032084F83500F2E720680068C0070D
:100AC000F0D12268116820480140D4E9010318439D
:100AD000D4E903363343184363691843A3691843C1
:100AE000E3691843236A18430843616A042903D160
:100AF000D4E90B1319430843106020684069666A03
:100B000020F0070130460E43012704280CD1A06ACB
:100B10000643E06A40B12046FFF7C6FD20B1402001
:100B2000606584F83570BAE7206846612046FFF7B3
:100B3000A7FD94F85C203F2191408160656584F8B1
:100B400035700020ACE700003F8010F02DE9F04147
:100B50000446866D90F83400002501280DD0012050
:100B600084F8340094F835700020012F07D084F801
:100B7000340002252846BDE8F0810220FBE7022769
:100B800084F8357060652046FFF7B8FD94F85C1076
:100B90003F208840B0602068016841F01601016084
:100BA000206C20B12068016841F0080101602068D4
:100BB000016841F001010160DCE700002DE9F84F18
:100BC000DFF8BCA10022012503264FF00F090AF12E
:100BD000040BAAF1040E00BF0B6805FA02F42340CF
:100BE000A34270D10F7907F00307012F01D0022F24
:100BF00016D187684FEA420806FA08FC27EA0C0774
:100C0000D1F80CC00CFA08FC4CEA070CC0F808C07C
:100C10004768A7430C79C4F3001494403C434460F4
:100C20000C79E443A4070AD0C4684FEA420C06FAE0
:100C30000CF7BC438F6807FA0CF72743C7600C79A1
:100C400004F00304022C12D1D40800EB840CDCF86D
:100C500020405707FF0E09FA07F824EA0804D1F8E4
:100C6000108008FA07F848EA0408CCF820800468E5
:100C70004FEA420C06FA0CF7BC430F7907F0030762
:100C800007FA0CF7274307604C6814F4403F70D014
:100C90003C4C276847F480472760246822F003070C
:100CA00004F480440094384C07EB040CDCF808484A
:100CB00097074FEA177809FA08F7BC43334FB84251
:100CC00002D1002724E054E0314FB84201D101277E
:100CD0001EE0304FB84201D1022719E02E4FB84232
:100CE00001D1032714E02D4FB84201D104270FE0B2
:100CF0002B4FB84201D105270AE02A4FB84201D153
:100D0000062705E0284FB84201D1072700E0082751
:100D100007FA08F72743CCF80878DAF80040574676
:100D2000D1F804C09C435FEACC2C00D51C433C6046
:100D3000DBF800405F46D1F804C09C435FEA8C2C8E
:100D400000D51C433C60DEF800407746D1F804C073
:100D50009C435FEA8C3C00D51C433C60084F083F35
:100D60003C68D1F804C09C435FEACC3C00D51C43EE
:100D70003C60521C102AFFF42FAFBDE8F88F000032
:100D8000083C01404438024000300140000002406D
:100D90000004024000080240000C02400010024023
:100DA0000014024000180240001C02400148806804
:100DB000704700001000002002488168027811444A
:100DC00081607047100000200B4810B5016841F4A5
:100DD00000710160016841F480610160016841F4C3
:100DE00080710160032000F09FF80F2000F006F8EA
:100DF00000F050F8002010BD003C024030B5054620
:100E00001F4887B00024016841F4807101600068C8
:100E100006A900F48070009001A800F031F9049850
:100E2000A8B100F04DF940001649174AB0FBF1F1A6
:100E30001648491E026040F2E732C0E90324C0E9C7
:100E40000114846100F082FB040003D015E000F07F
:100E500037F9E9E70D4800F0B9FB04000DD12D206A
:100E600000F034F8102D07D2002229462D2000F082
:100E70003BF80748056000E0012407B0204630BD7C
:100E80004038024040420F0000200040C80B0020C4
:100E9000140000200C4882B0016841F480410160D8
:100EA000006800F4804000900748001F016841F08E
:100EB000805101600068002200F0805000900F21F6
:100EC000901E02B000F010B844380240002809DB40
:100ED00000F01F02012191404009800000F1E02054
:100EE000C0F8001170470000F0B40E4B1B680C46B0
:100EF000C3F30223C3F10705042D00D90425191DEE
:100F0000072901D2002300E0DB1E012606FA05F1C5
:100F1000491E214099409E40761E16403143F0BC48
:100F200002F03FB90CED00E0064900F00702086846
:100F30004FF6FF03184040EA0220034A10430860BE
:100F4000704700000CED00E00000FA052DE9F047C5
:100F50000E46050065D0DFF81481D8F80000F7B21E
:100F600000F00700B04207D288F80070D8F80000FF
:100F700000F00700B04254D128683D4C810712D5DB
:100F8000400703D5206840F4E0502060287800072F
:100F900003D5206840F4604020602068A96820F0F4
:100FA000F000084320602878C0072DD030496868D9
:100FB0000839012812D0022813D0032811D009685B
:100FC000890700292DDA216821F0030101432160FE
:100FD000FFF7ECFE814641F2883A0EE0096889038A
:100FE000EFE709688901ECE7FFF7E0FEA0EB0901F4
:100FF000514502D90320BDE8F0872068696800F0F8
:101000000C00B0EB810FEFD1D8F80010404601F092
:101010000701B14207D90770006800F00700B0422D
:1010200001D00120E7E72878400705D52068E96866
:1010300020F4E050084320602878000706D5206897
:10104000296920F4604040EAC100206000F058F8AF
:101050002168084AC1F30311515CC8400649086081
:1010600006480068FFF7CAFE0020C4E7003C0240C3
:1010700008380240385300081C00002014000020EB
:101080000F2202600C4A136803F0030343601368E5
:1010900003F0F0038360136803F4E053C360126845
:1010A0004FF4E05303EAD20202610448006800F002
:1010B000070008607047000008380240003C02400A
:1010C0000448054900680968044AC1F38221515C5B
:1010D000C84070471C0000200838024048530008F0
:1010E0000448054900680968044AC1F34231515C6B
:1010F000C84070471C0000200838024048530008D0
:10110000104810B5006810F00C010F4818D00429E1
:1011100016D0082914D10B4C241F216801F03F027E
:10112000216821680023C1F38811A1FB0001FFF7AA
:10113000FBF82168C1F30141491C4900B0FBF1F003
:1011400010BD0000083802400024F4002DE9F84FDB
:1011500004006ED02078DFF84C93C007A9F1040595
:101160004AD009F104000168C1F38101012908D0C6
:101170000068C0F3810002280AD1D9F800004002BB
:1011800006D52868800337D560680028E1D033E0B1
:101190006068B0F5803F10D0B0F5A02F286810D05F
:1011A00020F480302860286820F48020286060685F
:1011B000A8B1FFF7FBFD06460DE0286840F480303B
:1011C000F4E740F480202860F7E700BFFFF7EEFD6A
:1011D000801B642873D828688003F7D50CE0FFF7DC
:1011E000E5FD064605E000BFFFF7E0FD801B642833
:1011F000F0D828688003F7D42078DFF8AC82800725
:101200004FF0000A3ED5A748001D016811F00C0FF1
:1012100008D00068C0F3810002280BD1D9F8000083
:10122000400207D42868800716D5E068012800D15D
:1012300012E033E1E068B8B10120C8F80000FFF720
:10124000B5FD064605E000BFFFF7B0FD801B022894
:10125000C0D828688007F7D52868216920F0F800F1
:1012600040EAC10028600DE0C8F800A0FFF79EFD2D
:10127000064604E0FFF79AFD801B02281FD8286865
:101280008007F7D42078000722D5864F8748616908
:10129000703771B101210160FFF788FD064604E057
:1012A000FFF784FD801B022809D838688007F7D52E
:1012B0000EE0C0F800A0FFF779FD064605E082E0E9
:1012C000FFF774FD801B02287DD838688007F7D4AB
:1012D0002078400768D5DFF8CCB100270BF13C0B34
:1012E000DBF80000C0000BD4DBF8001041F08051A7
:1012F000CBF80010DBF80000012700F080500090D0
:101300006B4E3068C00510D4306840F48070306097
:10131000FFF74CFD009005E0FFF748FD0099401AEB
:10132000022850D83068C005F6D55E4EA0686C36ED
:1013300001280FD00528306810D020F0010030605F
:10134000306820F004003060A068B8B1FFF72EFDCF
:1013500000900FE0306840F00100F4E740F0040036
:101360003060F7E7FFF722FD0099411A41F288301B
:10137000814266D830688007F4D50EE0FFF716FD8D
:10138000009007E0FFF712FD0099411A41F2883002
:10139000814256D830688007F4D42FB1DBF80010B2
:1013A00021F08051CBF80010A069C8B33D49091D58
:1013B0000968C1F3810102294AD00228504607D0AA
:1013C000C8F8600000E03CE0FFF7F0FC04463BE0BA
:1013D0004746C8F86000FFF7E9FC064605E000BF95
:1013E000FFF7E4FC801B02282BD828688001F7D483
:1013F000D4E907010843A16A2E4A490802EB0141DA
:10140000626A41EA8211084394F82C1040EA0161B3
:10141000C9F8001001203866FFF7C8FC044606E052
:101420003EE000BFFFF7C2FC001B022809D8286875
:101430008001F7D534E000BFFFF7B8FC001B02289D
:1014400002D90320BDE8F88F28688001F4D427E092
:101450000128F7D0D9F80000E26900F48001914238
:101460001CD1226A00F03F01914217D147F6C071AA
:10147000626A0140B1EB821F10D1A26A4FF0FF33C4
:1014800000F4403103EB5202B1EB024F06D194F865
:101490002C1000F07060B0EB016F01D00120D1E79B
:1014A0000020CFE70438024000004742800E474248
:1014B000007000400000FFFF7047704770B590F863
:1014C0003C20012A32D0012480F83C40022280F8DE
:1014D0003D2003685A689D6822F070060A6832430E
:1014E0005A60134B02689A4214D0B2F1804F11D067
:1014F000104B9A420ED0104B9A420BD00F4B9A428F
:1015000008D00F4B9A4205D00E4B9A4202D00E4B98
:101510009A4204D1496825F080031943916080F80C
:101520003D40002180F83C10084670BD022070BD8F
:10153000000001400004004000080040000C004092
:1015400000040140004001400018004010B50400B4
:1015500003D094F83D0010B107E0012010BD002039
:1015600084F83C00204600F01FF8022084F83D007B
:10157000211D206801F08EF9012084F8460084F8CE
:101580003E0084F83F0084F8400084F8410084F86D
:10159000420084F8430084F8440084F8450084F84D
:1015A0003D00002010BD000008B50068B0F1804F7C
:1015B00008D10548016841F001010160006800F0B0
:1015C0000100009008BD00004038024090F83D1036
:1015D000012901D001207047022180F83D100168E7
:1015E000CA6842F00102CA6000681149884214D0FA
:1015F000B0F1804F11D00F4988420ED00E49884279
:101600000BD00E49884208D00D49884205D00D49BB
:10161000884202D00C49884204D1816801F0070158
:10162000062903D0016841F00101016000207047E4
:10163000000001400004004000080040000C004091
:1016400000040140004001400018004070B504460D
:1016500090F83C000025012817D0012684F83C6052
:10166000022084F83D002068826822F0770222F48C
:101670007F4282600868502838D00DDC20284FD087
:1016800005DC90B3102811D14AE0022070BD30284B
:1016900046D040280AD13BE060282FD070280DD0DA
:1016A000B0F5805F03D0B0F5005F12D0012584F85B
:1016B0003D60002084F83C00284670BDCB68D1E92D
:1016C0000121206801F05FF92068816841F077010D
:1016D00009E0CB68D1E90121206801F054F92068C4
:1016E000816841F480418160E1E719E0CA68496896
:1016F000206801F01DFA5021206806E0CA68496898
:10170000206801F026FA6021206801F046F9CEE752
:10171000CA684968206801F00BFA40212068F4E7A4
:10172000226801461046F0E770472DE9F041044673
:101730000068C66805694FF00007A90713D5B1070F
:1017400011D5F91E0161012020772068806980078A
:10175000204602D0FFF7E8FF04E000F0A7F820469B
:1017600000F039F92777680716D5700714D5216876
:101770006FF004000861022020772068806910F46F
:10178000407F204602D0FFF7CFFF04E000F08EF844
:10179000204600F020F92777280715D5300713D504
:1017A00021686FF008000861042020772068C06974
:1017B0008007204602D0FFF7B7FF04E000F076F87C
:1017C000204600F008F92777E80616D5F00614D56C
:1017D00021686FF010000861082020772068C06938
:1017E00010F4407F204602D0FFF79EFF04E000F097
:1017F0005DF8204600F0EFF82777E80708D0F007FB
:1018000006D021686FF001000861204600F048F919
:10181000280608D5300606D521686FF080000861DB
:101820002046FFF749FE680608D5700606D52168F0
:101830006FF040000861204600F03CF9A8060AD588
:10184000B00608D521686FF0200008612046BDE889
:10185000F041FFF732BEBDE8F081000010B586B060
:10186000044614216846FEF777FE2068B0F1804FE9
:1018700015D10C480021026842F0010202600068A4
:1018800000F001000590042000900220CDE9010144
:101890000120CDE9031069460348FFF78FF906B030
:1018A00010BD00003038024000000240704770B5A3
:1018B000044690F83C0000260D4601280FD0012078
:1018C00084F83C006AB1042A1DD0082A2FD00C2AC3
:1018D0003FD00126002084F83C00304670BD022035
:1018E00070BD206801F062F82068816941F008014C
:1018F00081612068816921F004018161206881692A
:101900002A69114311E0206801F080F8206881699C
:1019100041F4006181612068816921F48061816105
:10192000206881692A6941EA02218161D2E7206841
:1019300001F0A2F82068C16941F00801C161206886
:10194000C16921F00401C1612068C1692A6911439C
:1019500011E0206801F0C4F82068C16941F4006119
:10196000C1612068C16921F48061C1612068C169D9
:101970002A6941EA0221C161ACE710B5040003D035
:1019800094F83D0010B107E0012010BD002084F85C
:101990003C00204600F01EF8022084F83D00211D86
:1019A000206800F077FF012084F8460084F83E00AC
:1019B00084F83F0084F8400084F8410084F8420035
:1019C00084F8430084F8440084F8450084F83D001E
:1019D000002010BD7047704710B50446022249B17F
:1019E00004290ED0082913D094F84100012816D0FC
:1019F000012010BD94F83E000128F9D184F83E2062
:101A00000FE094F83F000128F2D184F83F2008E06D
:101A100094F840000128EBD184F8402001E084F8DC
:101A200041200122206800F0A1FF16492068164AD3
:101A3000884201D0904203D1436C43F40043436495
:101A40002068884213D0B0F1804F10D00F498842EF
:101A50000DD00F4988420AD00E49884207D09042E3
:101A600005D00D49884202D00C49884204D18168D2
:101A700001F00701062903D0016841F0010101606E
:101A8000002010BD0000014000040140000400409F
:101A900000080040000C00400040014000180040D9
:101AA00000680349884201D1FFF786B970470000FA
:101AB00000200040704738B5044690F842002028C6
:101AC00001D0022038BD61B15AB10120206300204D
:101AD0006063204601F09AFA0028F3D1216B0129B6
:101AE00001D0012038BD21680A6849680091216849
:101AF0000C3151E8002F42F0100241E80023002B86
:101B0000F5D138BD10B5044600680A49884204D1B1
:101B1000172209492046FFF7CEFF0849206888426E
:101B200006D12046BDE8104017220349FFF7C3BF86
:101B300010BD000000480040A80000200014014033
:101B400070B5044620680C3050E8001F21F49071F5
:101B500040E80012002AF5D12068143050E8001F38
:101B600021F0010140E80012002AF5D1206B012884
:101B700009D120680C3050E8001F21F0100140E826
:101B80000012002AF5D1206840694FF00005400698
:101B900015D52068143050E8001F21F0400140E8BE
:101BA0000012002AF5D1E06B48B10565E06BFEF745
:101BB00035FE20B1E06BFEF78CFE202806D0E585CF
:101BC000202084F842002563002070BD102060644E
:101BD000032070BD70470000F8B50168044608682E
:101BE000CA684B6910F00F0F4FF0000559D003F091
:101BF000010602F49077374365D0C10705D0D105BF
:101C000003D5616C41F001016164410705D5D90735
:101C100003D0616C41F002016164810705D5D907E9
:101C200003D0616C41F004016164010707D502F043
:101C30002001314303D0616C41F008016164616CA3
:101C400000293AD0800604D5900602D5204601F03E
:101C5000F5F820684069616CC0F38010090700D472
:101C600060B3204601F0B5F820684069400621D5F0
:101C70002068143050E8001F21F0400140E80012B5
:101C8000002AF5D1E06BA8B16E490165E06BFEF763
:101C90000EFE002811D0E06B016D01B0BDE8F040F0
:101CA000084783060FD593060DD52046BDE8F840BA
:101CB00001F0C4B82046FFF78DFFF8BD2046FFF7BE
:101CC00089FF6564F8BD266B2023012E7DD1C606F1
:101CD0007BD5D60679D508684868009048694FF0EA
:101CE0000206400641D5E16B086840680004000C1C
:101CF000E8D0A28D8242E5D9E085C869B0F5807F41
:101D00002DD020680C3050E8001F21F4807140E88D
:101D10000012002AF5D12068143050E8001F21F08D
:101D2000010140E80012002AF5D12068143050E883
:101D3000001F21F0400140E80012002AF5D184F88C
:101D40004230256320680C3050E8001F21F010015C
:101D500040E80012002AF5D1E06BFEF75FFD6663F4
:101D6000A08DE18D401A81B22AE0A08DE18D401A4C
:101D700081B2E08D0028A5D00029A3D022680C32C2
:101D800052E8000F20F4907042E80007002FF5D1D0
:101D90002068143050E8002F22F0010240E80027AC
:101DA000002FF5D184F84230256320680C3050E8CC
:101DB000002F22F0100240E80023002BF5D16663CB
:101DC0002046FFF79FFEF8BDFFE705062BD5150659
:101DD00029D594F841002128F5D1A068B0F5805F9D
:101DE00001D12069B0B1206A411C216221680078CC
:101DF0004860E08C401E0004000CE084E3D12068C1
:101E0000C16821F08001C1602068C16841F04001D3
:101E1000C160D8E7206A0088C0F308004860206AE3
:101E2000801C2062E5E74006CDD55006CBD5CA68B8
:101E3000204622F04002CA6084F8413000F033FAB4
:101E4000C1E70000D52C000870B5040004D094F858
:101E50004100002510B106E0012070BD84F840501B
:101E6000204600F023F8242084F841002068C1684F
:101E700021F40051C160204601F042F82068016958
:101E800021F4904101612068416921F02A014161FA
:101E90002068C16841F40051C1606564202084F865
:101EA000410084F842006563002070BD2DE9F04FC9
:101EB00087B0054614216846FEF74EFBCE48CD4B51
:101EC0001038D5F800C0DFF830A3032102224027E4
:101ED000002406154FF0080E4FF000699C455ED1B6
:101EE000DAF800C04CF4002CCAF800C0DAF8003070
:101EF00003F400230593036843F0010303600068C3
:101F000000F0010005908DE81600CDE9031E69463A
:101F1000BA48FEF753FEDFF8EC82B9494046C8F8EC
:101F20000010C0E90194C0E90346C8F81440C8F89D
:101F30001840C8F81C40C8F82040C8F82440FEF7F4
:101F40009BFD08B1FEF768FCC5F83C80C8F8385026
:101F5000DFF8B082AA4908F160084046C8F8087066
:101F6000C0E90346C8F81440C8F81840C8F81C4037
:101F70003031C8F82040C8E90019C8F82440FEF7FD
:101F80007BFD08B1FEF748FCC5F83880002205212A
:101F90003420C8F83850FEF7A7FF342065E0964B90
:101FA000DFF864821B1D4FF0070BC44562D1D3F8E4
:101FB00000C0A2464CF0100CC3F800C01B6803F030
:101FC00010030593036843F0010303600068CDE943
:101FD000024100F0010005904FF4C060CDE900021D
:101FE000CDF810B069468548FEF7E8FDDFF81482A9
:101FF000864908F1C0084046C8F80010C0E90194BD
:10200000C0E90346C8F81440C8F81840C8F81C4096
:10201000C8F82040C8F82440FEF72EFD08B1FEF7AE
:10202000FBFB7B4CC5F83C807848C8F838507830CA
:10203000A760C4E90009C4E903A6C4F814A0C4F861
:1020400018A0C4F81CA0C4F820A02046C4F824A0FE
:10205000FEF712FD08B1FEF7DFFBAC63002205219D
:102060002520A563FEF740FF2520FEF72FFF07B0D0
:10207000BDE8F08FDFF89C81C4455CD1DAF800C080
:102080004CF4802CCAF800C0DAF8003003F4802346
:102090000593036843F0020303600068CDE9024141
:1020A00000F0020005904FF44060CDE90002CDF849
:1020B00010B069465848FEF781FDDFF854A1504939
:1020C0000AF1600A18395046CAF80010C0E90194B4
:1020D000C0E90346CAF81440CAF81840CAF81C40C0
:1020E000CAF82040B046CAF82440FEF7C5FC08B143
:1020F000FEF792FB464EC5F83CA0C036CAF83850F1
:10210000C6E90274C6E90484B4613D48F4613462EE
:1021100018307462C6E900093046FEF7ADFC08B11C
:10212000FEF77AFBAE63002205212720B563FEF798
:10213000DBFE272099E7DFF8E480C44597D1D3F888
:1021400000C04CF0200CC3F800C01B6803F0200353
:102150000593036843F0040303600068CDE902417E
:1021600000F004000590C020CDE90002CDF810E099
:1021700069462B48FEF722FD2449DFF8A88018396C
:1021800040464FF0206AC8F80010C0E901A4C0E939
:102190000346C8F81440C8F81840C8F81C40C8F8EE
:1021A0002040B146C8F82440FEF766FC08B1FEF7AF
:1021B00033FB1C4EC5F83C806036C8F83850C6E981
:1021C0000274C6E90494B4611048F461346260306A
:1021D0007462C6E9000A3046FEF74EFC08B1FEF70D
:1021E0001BFBAE63002205214720B563FEF77CFE92
:1021F00047203AE7004C00404038024000000240CF
:1022000040600240C80800200010014040640240C5
:10221000E80900200048004000040240001401408A
:1022200000080240080B002090F84230202B01D01B
:102230000220704721B11AB10023036300F0E6BE0B
:102240000120704790F84230202B01D002207047C7
:1022500021B11AB10023036300F020BF01207047B1
:1022600000680C49884213D10B490A78542A0CD0D3
:1022700048880C2804D2094B80B21A54401C48806C
:10228000012205490648FFF7DDBF00204880F2E73C
:10229000704700000048004000000020A800002017
:1022A0003808002070477047FEE70000294808B54D
:1022B000016841F480010160016801F4800100912E
:1022C000016841F4001101600068002200F4001070
:1022D000009005210C20FEF707FE0C20FEF7F6FD0E
:1022E000002205210D20FEF7FFFD0D20FEF7EEFD7B
:1022F000002205210E20FEF7F7FD0E20FEF7E6FD79
:10230000002205210F20FEF7EFFD0F20FEF7DEFD76
:10231000002205213920FEF7E7FD3920FEF7D6FD22
:10232000002205213A20FEF7DFFD3A20FEF7CEFD20
:10233000002205214520FEF7D7FD4520FEF7C6FD0A
:10234000002205214620FEF7CFFDBDE808404620CB
:10235000FEF7BCBD3038024010B596B01C221149C2
:102360006846FEF79DF80021684601F05CF80E4CC7
:102370000C491C2220601C3107A8FEF791F80021AF
:1023800007A801F050F80749A0601C2238310EA8B8
:10239000FEF786F800210EA801F045F8606016B03F
:1023A00010BD0000DC52000804000020114808B5F0
:1023B000016841F080010160016801F08001009135
:1023C000016841F001010160016801F00101009123
:1023D000016841F002010160016801F00201009111
:1023E000016841F004010160006800F00400009001
:1023F00008BD00003038024010B58EB000240794AC
:10240000089409940A940B941C2168460C94FEF7D6
:10241000A3F81E484FF0804101602921C0E9011452
:1024200042F20F71C0E903148461FFF78FF808B11D
:10243000FEF7F2F94FF48050079007A91348FFF711
:1024400005F908B1FEF7E8F91048FFF796FA08B168
:10245000FEF7E2F90B940BA90C480C94FFF72EF849
:1024600008B1FEF7D9F96020CDE9000402940822F2
:10247000694606480494FFF71AFA08B1FEF7CCF94A
:102480000248FFF7EBF90EB010BD00006007002016
:102490000C4810B50A4901604FF4E1314160002158
:1024A00081600C22C160C0E904128161C161FFF743
:1024B000CBFC002803D0BDE81040FEF7ADB910BD3D
:1024C000004C0040A80700200C4810B50A490160E4
:1024D0004FF4E1314160002181600C22C160C0E90C
:1024E00004128161C161FFF7AFFC002803D0BDE891
:1024F0001040FEF791B910BD00100140F007002018
:102500000C4810B50A4901604FF4E13141600021E7
:1025100081600C22C160C0E904128161C161FFF7D2
:1025200093FC002803D0BDE81040FEF775B910BD3C
:1025300000480040380800200C4810B50A490160E6
:102540004FF4E1314160002181600C22C160C0E99B
:1025500004128161C161FFF777FC002803D0BDE858
:102560001040FEF759B910BD00140140800800204A
:10257000FEE7FEE770B5044690F86D00010640D511
:1025800094ED0D1AD4ED101A9FED7F2A61EE821A98
:10259000B4EEE11AF1EE10FA2BD394ED001A94ED9B
:1025A000052A71EE421AF5EEC01AF1EE10FA03DCBC
:1025B000F1EE411A71EEC21A744A81EE812A12EECE
:1025C000101A914205DDD4E91C12491C42F10002A7
:1025D00001E000210A46C4E91C12D4E91C254FF48D
:1025E0007A7300219B1AA94103D2012084F8780054
:1025F00002E094F8781021B19FED650A84ED0D0A90
:1026000070BD84ED050A30EEC00AC4ED000A84ED09
:10261000070AB5EEC00AF1EE10FA02DDF0EE400A4C
:1026200001E0F1EE400A94ED121AF4EEC10AF1EE67
:1026300010FA7DDDD4ED020A410760EE800AC4ED98
:10264000090AD4ED030A20EE801A84ED0C1A94EDE9
:10265000081A94ED042A70EE411A61EE821AC4ED54
:102660000B1A09D530EE010AB6EE001A20EE010A67
:1026700020EE200A84ED0C0A800602D5204600F0E8
:10268000A1FD94F86D00C00702D0204600F0E2FDE5
:1026900094F86D0081070BD594ED060AD4ED050A78
:1026A00030EE600AD4ED040A20EE200A84ED0B0A15
:1026B0004106F7EE000A0DD594ED0B1A94ED180AB9
:1026C000D4ED0F1A21EE001A30EEC00A01EE801A86
:1026D00084ED0B1A94ED0A0A94ED0C1AC00630EE44
:1026E000010A84ED0A0A94ED091AD4ED0B1A31EEB1
:1026F000000A30EE210A84ED0D0A0BD5D4ED171A2D
:1027000094ED0E2A20EE210A70EEE10A02EE200A74
:1027100084ED0D0AF0EE400A94ED100AF4EEC00AC2
:10272000F1EE10FA01DD84ED0D0AD4ED0D1A00E092
:1027300019E0F1EE400AF4EEE01AF1EE10FA01D2DF
:10274000C4ED0D0AB4EEC01AF1EE10FA02DCB0EEE0
:10275000410A01E084ED090AB4EEE00AF1EE10FA54
:1027600001D2C4ED090A94ED050A84ED060A94ED40
:102770000D0A84ED0E0AD4ED0B0AC4ED0F0AD4ED58
:10278000070AC4ED080A70BD0AD7233C6666663F97
:102790000000000030B4044CC0F88040034CC0F886
:1027A000844030BC00F098BDD932000839330008AD
:1027B000012000F019FEFBE710B5502080F31188CE
:1027C000BFF34F8FBFF36F8F02F04CF818B104497D
:1027D0004FF080500860002080F3118810BD000089
:1027E00004ED00E030B593B030216846FDF7B4FE4B
:1027F00014210CA8FDF7B0FE1D480025016841F02A
:1028000080510160006800F0805011901948016803
:1028100041F4804101600068022400F4804011907E
:1028200001200090000401908001CDE906400820BD
:102830000890A820CDE9090404200B906846FEF713
:1028400085FC08B172B6FEE70CA90F2081E83100C3
:102850004FF4A0500F904FF48050109005210CA819
:10286000FEF774FB002801D072B6FEE713B030BD4E
:1028700040380240007000400248016841F4700195
:102880000160704788ED00E00148FEF74EBF000090
:10289000C80B0020F0B50268294C2A4D2A4E2B4F58
:1028A0002B4B4FF0804CA04209D0604507D0A84286
:1028B00005D0B04203D0B84201D0984204D122F0F2
:1028C000700E4A6842EA0E02A0421BD0604519D041
:1028D000A84217D0B04215D0B84213D0984211D0B8
:1028E0001C4DA8420ED01C4DA8420BD01B4DA84237
:1028F00008D01B4DA84205D01A4DA84202D01A4D4F
:10290000A84203D122F44075CA682A434D6922F0D7
:1029100080022A4302608A68C2620A688262A04218
:1029200001D0984201D10969016301214161016926
:10293000C90703D0016921F001010161F0BD000068
:10294000000001400004004000080040000C00406E
:1029500000040140004001400044014000480140A3
:1029600000180040001C00400020004010B501F09D
:102970001F030121046A99408C430462016A9A4052
:102980001143016210BD10B5846842EA032224F4A9
:102990007F440A432243826010BD826822F07002A5
:1029A0000A4342F00701816070470000F0B5036AF6
:1029B000026A22F00102026242688469124E24F027
:1029C00073050C682C4323F002058B682B430D4DD7
:1029D000A84201D0B04205D123F00807CB683B43A1
:1029E00023F00403A84201D0B04205D14D6922F47E
:1029F000407215438A692A43426084614968416391
:102A00000362F0BD0000014000040140F0B5026A1D
:102A1000036A23F010030362436884690D6824F499
:102A2000E64444EA05248D6822F0200242EA0512B9
:102A30000F4D104EA84201D0B04206D1CF6822F00F
:102A4000800242EA071222F04002A84201D0B042BE
:102A500007D14D6923F4406343EA85038D6943EA56
:102A6000850343608461496881630262F0BD0000B0
:102A70000000014000040140F0B5026A036A23F43B
:102A8000807303624368C46922F4007224F0730502
:102A90000C68124E2C438D6842EA05220E4DA84266
:102AA00001D0B04206D1CF6822F4006242EA072288
:102AB00022F48062A84201D0B04207D14D6923F4CC
:102AC000405343EA05138D6943EA05134360C4612B
:102AD0004968C1630262F0BD00000140000401408A
:102AE00030B5046A026A22F4805202624268C36905
:102AF0000D6823F4E64343EA05238D6824F400546B
:102B000044EA0534084DA84202D0084DA84204D139
:102B10004D6922F4804242EA85124260C3614968ED
:102B20000164046230BD0000000001400004014067
:102B300010B5036A046A24F001040462846924F075
:102B4000F00444EA021423F00A020A438461026298
:102B500010BD10B5036A046A24F01004046284698D
:102B600023F0A00324F4704444EA023243EA011142
:102B70008261016210BD000008B500F048FC194CEC
:102B8000B3EE0E0A009084ED040A9FED170A0023AD
:102B90009FED161AF0EE403AB0EE403AF0EE402AC1
:102BA000B0EE402AF0EE401ADFED110A1A4641F667
:102BB0004C511048FFF7EEFD4FF080454FF4FA7688
:102BC000D4ED040A94ED010A0A48FFF7D3FCBCEEE9
:102BD000C00A10EE100AE8633146684600F00BFCAC
:102BE000EEE70000840C0020000000000AD7A33BA1
:102BF00000409C46C84A002070B504460E4629484D
:102C0000C1EBC60108442DED048B05460722264979
:102C100000F0D6FBE0BB207A482839D1207900F0BB
:102C20009BFB02F0FFF99FED211B53EC112B02F0EF
:102C3000A1F841EC180BE07800F08EFB02F0F2F9FD
:102C40009FED1C1B53EC112B02F094F841EC190B77
:102C5000607800F081FB0146207800F07DFB00EBFE
:102C6000800001EB400002F0DDF953EC192B01F07C
:102C7000D9FF53EC182B01F0D5FF01F0A1FF094952
:102C8000143901EB8601486000202860A880A871F3
:102C900020682860A088A880A079A871BDEC048B6A
:102CA00070BD0000980C00202000002000000000F3
:102CB00000005940000000000000244010B5044806
:102CC00000F046FABDE810400148FEF785BF00005D
:102CD000A807002010B5806B0021C185C184FEF7D4
:102CE00079FF10BD70B5846B2068406994F841107D
:102CF000C0F3C0100025212904D118B1E584204675
:102D000000F08EF82068406994F84210C0F38010FB
:102D1000222904D118B1E585204600F05AF8606CEC
:102D200040F0100060642046FEF754FF70BD10B5FF
:102D30000146806B096809684FF00002C9052ED46E
:102D4000C28501680C3151E8003F23F4807341E8EB
:102D50000034002CF5D10168143151E8003F23F014
:102D6000010341E80034002CF5D10168143151E829
:102D7000003F23F0400341E80034002CF5D120212E
:102D800080F84210016B012909D101680C3151E82A
:102D9000003F23F0100341E80034002CF5D14263DA
:102DA000016B012902D0FFF75BFA10BD818DFEF7A0
:102DB000A9FE10BD10B5806B01214163016B012993
:102DC00002D0FFF76FFA10BD818D4908FEF79AFE19
:102DD00010BD01680C3151E8002F22F4907241E8D7
:102DE0000023002BF5D10168143151E8002F22F0A7
:102DF000010241E80023002BF5D1016B012909D123
:102E000001680C3151E8002F22F0100241E8002344
:102E1000002BF5D1202180F842100021016370477A
:102E200001680C3151E8002F22F0C00241E8002374
:102E3000002BF5D1202180F84110704708B590F89B
:102E40004210222901D0022008BD82684FF480532D
:102E50009A4201D1016921B1816A9A421BD04AB1DB
:102E60000AE00268816A5268C2F308020A80816A35
:102E7000891C08E0026972B10268526802F07F02A0
:102E80000A70816A491C8162C18D491E0904090CBE
:102E9000C18503D01BE002685268F1E70168CA6887
:102EA00022F02002CA600168CA6822F48072CA60F7
:102EB00001684A6922F001024A61202180F842102B
:102EC00000214163026B012A03D0FFF7C9F90020FA
:102ED00008BD016301680C3151E8002F22F0100297
:102EE00041E80023002BF5D101680A68D20602D51B
:102EF0000A6849680091818DFEF704FEE7E700004B
:102F000070B5044600680169E26821F4405111433C
:102F100001612169A068E2690843616911430843BE
:102F20002168CA6849F20C639A430243CA60206868
:102F30004169A26921F4407111434161314920681E
:102F4000884202D03049884202D1FEF7C9F801E038
:102F5000FEF7B6F8E2690023192164253226B2F59E
:102F6000004F626828D0A0FB0101930F9200FDF78B
:102F7000DBF90146B0FBF5F06FF01802504301EBAE
:102F8000800006EB0010B0FBF5F000F0F002B1FBA2
:102F9000F5F002EB0012B1FBF5F06FF018035843A7
:102FA00001EB800006EB0010B0FBF5F000F00F0025
:102FB00021681044886070BDA0FB010192185B413C
:102FC000FDF7B2F90146B0FBF5F00201B1FBF5F0F7
:102FD0006FF01803584301EB800006EBC000B0FB14
:102FE000F5F000F0F80002EB4002B1FBF5F05843B9
:102FF00001EB800006EBC000B0FBF5F000F007002D
:10300000D6E70000001001400014014038B581628D
:1030100004468285002013466064222284F8422000
:10302000E56B1B4AEA63E56B1A4A2A64E56B1A4AA8
:10303000EA64E26B10650A462168E06B091DFDF742
:1030400085FD2068016840680090206948B12068CB
:103050000C3050E8001F41F4807140E80012002A53
:10306000F5D12068143050E8001F41F0010140E81C
:103070000012002AF5D12068143050E8001F41F0FA
:10308000400140E80012002AF5D1002038BD0000C0
:103090002F2D0008B52D0008E52C000881628285DF
:1030A000C28500214164222180F84210016921B1CA
:1030B0000168CA6842F48072CA6001684A6942F0D5
:1030C00001024A610068C16841F02001C16000202E
:1030D0007047000010B5044800F03AF8BDE8104011
:1030E0000148FEF779BD0000F007002010B5044844
:1030F00000F02EF8BDE810400148FEF76DBD00005D
:103100003808002010B5044800F022F8BDE810404F
:103110000148FEF761BD00008008002010B504469C
:103120000068094988420ED100210848FFF764FD74
:1031300032210648FDF7EEF92046BDE81040322264
:103140000249FFF771B810BD00140140100C0020B7
:1031500038B5016804460868C043C0060AD4086848
:10316000486800902046FEF7EBFC2046BDE838405A
:10317000FFF7D4BF38BD0000074882B0006801687F
:1031800041680091C16841F01001C16032220349D9
:10319000014802B0FFF748B880080020100C00205A
:1031A000FEE70907090E002804DB00F1E02080F8A3
:1031B0000014704700F00F0000F1E02080F8141DAB
:1031C0007047000090ED070AD0ED0A0A60EE200A71
:1031D000F5EEC00AF1EE10FA39DDB5EEC00AF1EEF7
:1031E00010FA02DDF0EE400A01E0F1EE400A90ED47
:1031F000161AF4EEC10AF1EE10FA28D9D0ED150A2C
:10320000B5EEC00A30EE812AF1EE10FA02DDF0EEE2
:10321000401A01E0F1EE401AB4EEE12AF1EE10FAA4
:1032200011DBB5EEC00AF1EE10FA01DCB1EE400A96
:1032300030EEC00A30EE010A80EE201A90ED0C0A42
:1032400021EE000A01E09FED020A80ED0C0A7047B2
:1032500000000000D0ED0A1A90ED0C0A90ED0B1A58
:1032600071EE800A90ED090A30EE210A30EE010A73
:10327000B5EEC00AF1EE10FA01DCB1EE400A90EDB5
:10328000102A9FED141AB4EEC20AF1EE10FA0ADD0C
:1032900090ED070A20EE210AB5EEC00AF1EE10FA11
:1032A00001DD80ED0C1A90ED110AB4EEE00AF1EEAA
:1032B00010FA03D280ED0C1A80ED0A0AB1EE400A32
:1032C000B4EEE00AF1EE10FA03DD80ED0C1A80EDA9
:1032D0000A0A70470000000080ED120A00EE102A72
:1032E00000F1080CB8EE400A80ED110A00EE101A49
:1032F0004900B8EE400A80ED100A00EE101A0021D5
:10330000B8EE400A80ED140A9FED0A0A80ED000A2B
:1033100080ED0C0ACCEC030A00F1540C8CEC042A6E
:1033200080F86D30C0E91C1180F8781080ED0D0A2E
:103330007047000000000000F5EEC00A00F108012F
:10334000F1EE10FA81EC030A03D19FED020A80ED41
:103350000A0A7047000000003038092801D8C0B2BE
:10336000704700207047EFF30580002800D001204F
:1033700070470000FDF728FDFFF734FAFFF716F855
:10338000FEF794FFFFF7A0F8FFF7BAF8FFF780F811
:10339000FFF7D2F8FFF730F808210548FEF71CFBCD
:1033A000FFF7EAFEFEF7D8FF00F02CF8FEE700007A
:1033B0006007002001460020842900D0C81C704707
:1033C00030B5012305E05B1CDBB2A54207D1401CF0
:1033D000491C05781DB10C780CB19342F3D90978DA
:1033E000E8B2401AC0B230BD10B500B9012000F0FB
:1033F000C5FD002010BD10B501B9012100F0E4FDAC
:10340000002010BD10B500F067FE002010BD10B503
:10341000FFF7A9FF18B1BDE8104001F01BBABDE8E5
:10342000104001F011BA7FB50D4604464169B0F96C
:10343000080081B1A16971B1FFF7BCFFD4E90512A1
:103440008DE80700D4E900102B46226901F0C3F98A
:10345000039004B070BDFFF7ADFF03A9CDE90001F3
:10346000208A2B4682B2D4E9001001F087F90128A6
:1034700001D00020EDE70398EBE700002DE9F041D3
:10348000184C0F460546E6682068001D00F042FC17
:1034900038B9206890F82C100120884021698143B8
:1034A0002161681C07D137B12168BDE8F0410E48A1
:1034B000091D00F07FBC20683544B5424560216895
:1034C00005D2A06BBDE8F041091D00F05BBC606B4C
:1034D000091D00F057FCA06A854200D2A562BDE834
:1034E000F081000028000020CC0D00202DE9F041E3
:1034F000054600F06BFC2E4CA068401CA0602068C4
:103500002C4F10B1606940B32DE02560A068012800
:1035100029D1002606EB860007EB800000F024FC92
:10352000761C072EF6D323488C3000F01DFC214872
:10353000A03000F019FC1F48B43000F015FC1D4805
:10354000C83000F011FC1B48DC3000F00DFC1948BD
:103550008C3060631430A06305E02068E96AC06ABB
:10356000884200D82560606A401C6062E96A0120D8
:10357000226988401043206101EB810007EB800045
:10358000291D00F017FC00F041FC606900280CD0F8
:103590002068E96AC06A884207D207494FF0805024
:1035A0000860BFF34F8FBFF36F8FBDE8F08100005D
:1035B00028000020F00C002004ED00E038B500F0F9
:1035C00005FC104C2068C8B90F4800F0CDFB0E4830
:1035D000143000F0C9FB0C48E060143020610A4B45
:1035E0000020C03B009003F148020C210A2000F0AB
:1035F00067FE206010B105A100F08AFCBDE83840EC
:1036000000F004BC64000020A00E0020546D725134
:103610000000000030B4026C0B46002A0BD0C168D9
:103620001144C1608468A14201D30168C16030BC0B
:103630001846FCF7F0BE30BC70472DE9F041856BB1
:10364000174604460026026C82B1C7B1E068FCF759
:10365000E2FEE168206C091AE1602268914202D220
:10366000A168081AE060022F16D017E02068A8B9F8
:10367000A06801F05DF906460020A0600EE06068D9
:10368000FCF7C9FE216C606808446060A16888424C
:1036900004D32068606001E005B16D1E6D1CA56358
:1036A0003046BDE8F08110B5044690F8510058B19D
:1036B00001280CD002280FD0502080F31188BFF3CE
:1036C0004F8FBFF36F8FFEE7206B00F0B3FB2046F8
:1036D000BDE8104000F0AEBB10BD000010484FF434
:1036E0007051420706D0C01D0D4920F00700411A55
:1036F000C1F570510B4A00230144C2E900030839A7
:10370000183A21F0070111604B600B600B1AC0E9F9
:10371000001393604FF00040536050617047000009
:10372000C80E002090000020144E154CA6F1C807CA
:103730004FF08058DFF84C9012E000BF00F046FBDD
:10374000F068C568281D00F0E5FAA068401EA0607A
:103750006068401E606000F059FB2846FFF7A3FF39
:1037600060680028EAD138680128F9D9C9F80080D2
:10377000BFF34F8FBFF36F8FF2E70000B80D00204B
:103780002800002004ED00E00346009829B1026003
:10379000C0E90F31012100F0C7BD0060F8E700006B
:1037A0002DE9F05F8846DDE90B94154683469100CC
:1037B0009A460A9EA522206BFCF7A4FE6FF0030137
:1037C000206B01EB8501084420F00707780707D03C
:1037D000502080F31188BFF34F8FBFF36F8FFEE748
:1037E0000025B8F1000F0FD05FF00000221818F884
:1037F000001082F8341018F8001011B1401C102885
:10380000F4D384F8435001E084F83450072E00D3F9
:103810000626E662C4E91165201D00F0B0FA04F145
:10382000180000F0ACFA2461C6F107006462A061E0
:10383000E56484F8505052465946384600F054FA30
:103840002060B9F1000F01D0C9F80040BDE8F09F39
:1038500030B5114900E011460A688242FBD34B683B
:103860005C18844203D140681844486008464368A5
:103870001C18944209D1084C183C2468A24209D073
:1038800052681A4442600A6812680260814200D09D
:10389000086030BD0460F9E79000002070B5002496
:1038A00041600B4D0061914206D8D11A8269914264
:1038B00006D2011D286907E09A4203D2994201D33A
:1038C000012403E0011DE86800F05CFA204670BDA9
:1038D0006400002010B5044600F078FAA06B28B10F
:1038E0005FF0000400F092FA204610BD0124F9E7D1
:1038F00030B587B0394D67E00498002864DB069C3A
:10390000606910B1201D00F005FA03A800F0D8F896
:10391000024604980A2857D2DFE800F00505052D75
:10392000334A05052D3394F8240040F0010084F853
:1039300024000599A069059B01442046FFF7AEFFCE
:1039400068B3216A2046884794F8240040073BD595
:10395000002000900598A1690023421819462046CE
:1039600001F0FEF8D8B9502080F31188BFF34F8FD3
:10397000BFF36F8FFEE714F8240F20F001002070D2
:1039800022E094F8240040F0010084F82400059817
:10399000A06128B1811813462046FFF77FFF13E08E
:1039A000502080F31188BFF34F8FBFF36F8FFEE776
:1039B00094F82400810703D4204600F03BFA03E08A
:1039C00020F0010084F82400002204A9286800F0F7
:1039D000FFFD002890D107B030BD0000640000203A
:1039E0002DE9FC410F46054600F0BAFB01A800F0A6
:1039F00067F80446019818B101F020F8BDE8FC8191
:103A0000254EAFB130690068D0B30027291B3A4674
:103A1000306800F091FA01F011F80028EED11F494A
:103A20004FF080500860BFF34F8FBFF36F8FE5E713
:103A3000A542EBD801F002F8F0682746C068C468D8
:103A4000201D00F067F994F82400410719D5A069FA
:103A50002B4641193A462046FFF720FFA8B1002027
:103A60000346014600902A46204601F079F860B9E5
:103A7000502080F31188BFF34F8FBFF36F8FFEE7A5
:103A800007E020F0010084F82400216A20468847DE
:103A9000B4E70127BAE700006400002004ED00E06D
:103AA0000648416B096829B1416BC968C968496812
:103AB000816270474FF0FF31FAE7000028000020D4
:103AC00070B5054600F0C0FE064E0446B06884425C
:103AD00003D200F009F8012000E000202860204611
:103AE000B46070BD64000020F8B5194D20E0C068D6
:103AF000C4680668201D00F00DF9216A2046884739
:103B000094F82400400713D5A0693044B04206D988
:103B100024616060211DE86800F034F908E00020AD
:103B20000346014600903246204601F019F838B1AC
:103B3000E86801680029DAD12969C5E90310F8BDF0
:103B4000502080F31188BFF34F8FBFF36F8FFEE7D4
:103B50006400002008484068401C4FF0500080F38B
:103B6000118804D0BFF34F8FBFF36F8FFEE7BFF311
:103B70004F8FBFF36F8FFEE798000020074CE0687F
:103B8000016841B1C0680021D0F80000FFF728FFAC
:103B9000FFF7AEFEF3E701210020F7E76400002005
:103BA0002DE9F041044600F011F994F9455004F173
:103BB000240609E0606A48B1304600F005FF08B10C
:103BC00000F050FA6D1E6DB2002DF3DC4FF0FF36A1
:103BD00084F8456000F01AF900F0F8F894F94450C0
:103BE00004F1100709E0206948B1384600F0ECFE06
:103BF00008B100F037FA6D1E6DB2002DF3DC84F8C9
:103C00004460BDE8F04100F001B900002DE9F04149
:103C10000546002700F0A4FA324E306808B9FFF7D5
:103C20005DFD706905424ED1C5B3083568070ED0F9
:103C300005F00700C0F108000544680707D05020D0
:103C400080F31188BFF34F8FBFF36F8FFEE72DB363
:103C50007068854237D82348183001460C6801E067
:103C600020460C466168A94202D221680029F7D19A
:103C700031688C4227D00768216801606068083786
:103C8000411B10290FD96019420708D0502080F33A
:103C90001188BFF34F8FBFF36F8FFEE713E04160D2
:103CA0006560FFF7D5FD61687068401A7060B268A2
:103CB000904200D2B060706901430020C4E9000165
:103CC000F068401CF06000F0B9FE780707D0502083
:103CD00080F31188BFF34F8FBFF36F8FFEE7384635
:103CE000BDE8F0817800002010B5031F4FF080740C
:103CF0001C601B1F21F001011960191F044B0B6090
:103D000014390A60091F6FF0020244380A6010BDBE
:103D1000553B0008D0E9013201699A60D0E90123DE
:103D20005A604A68824201D182684A600022026178
:103D30000868401E0860086870470000034B036075
:103D400003F154000860802010607047B800002024
:103D5000044B036003F1540008604FF4807010605E
:103D6000704700000C03002000F108014FF0FF3203
:103D7000C0E90112C16001610021016070470021AA
:103D80000161704730B50B685A1C02D000F108027F
:103D900002E0026904E02246546825689D42FAD98F
:103DA00053684B6099608A60516008610168491CE2
:103DB000016030BD42684A6093688B6093685960C7
:103DC000916008610168491C01607047502080F3D0
:103DD0001188BFF34F8FBFF36F8F0A494868401CAB
:103DE000486001280CD10848006810F0FF0F07D088
:103DF000502080F31188BFF34F8FBFF36F8FFEE722
:103E0000704700009800002004ED00E00849486871
:103E100028B1401E486001D180F3118870475020BE
:103E200080F31188BFF34F8FBFF36F8FFEE7000061
:103E30009800002070B500282AD0164DA0F1080483
:103E400060686969084207D1502080F31188BFF388
:103E50004F8FBFF36F8FFEE722683AB1502080F397
:103E60001188BFF34F8FBFF36F8FFEE78843606009
:103E700000F076F960686968084468602046FFF7DA
:103E8000E7FC2869401C2861BDE8704000F0D6BD01
:103E900070BD0000780000204FF0E020002101619B
:103EA000816105494FF47A720968B1FBF2F1491E4C
:103EB00041610721016170471C00002010B5FCF72B
:103EC0000FFA114910280ED300F1E02090F8F0030A
:103ED0000A78904207D2502080F31188BFF34F8FA9
:103EE000BFF36F8FFEE709480068896800F4E0605F
:103EF000884207D9502080F31188BFF34F8FBFF35A
:103F00006F8FFEE710BD0000980000200CED00E070
:103F100010B5084B002200BF53F832401CB1521CB0
:103F2000082AF9D310BD43F8321003EBC2014860F0
:103F300010BD0000B00C002070B515460E460446BA
:103F4000FFF744FF94F944100020491C01D184F884
:103F5000440094F94510491C01D184F84500FFF74D
:103F600055FFA06B28B92A46314604F1240000F021
:103F700097F82046BDE87040FFF712BE10B502006A
:103F800014D00F48006B38B1502080F31188BFF374
:103F90004F8FBFF36F8FFEE700F0E2F8002110466D
:103FA000FFF76CFA00F04AFD002807D105494FF0F1
:103FB00080500860BFF34F8FBFF36F8F10BD0000BC
:103FC0002800002004ED00E070B50D4604000BD081
:103FD00095B11E4A106BB8B1502080F31188BFF321
:103FE0004F8FBFF36F8FFEE7502080F31188BFF330
:103FF0004F8FBFF36F8FFEE7502080F31188BFF320
:104000004F8FBFF36F8FFEE700F0AAF8D2682368E6
:104010005919934204D98B420AD9914202D807E038
:104020008B42FAD9881A21600021FFF727FA00E0B5
:10403000216000F003FD002807D105494FF08050B2
:104040000860BFF34F8FBFF36F8F70BD2800002053
:1040500004ED00E002490A6A0260C96841607047E5
:104060002800002001490120C86170472800002075
:1040700010B50C4650B1094909681831FFF782FEA6
:104080002046BDE810400121FFF7F8B9502080F329
:104090001188BFF34F8FBFF36F8FFEE7280000201A
:1040A00070B514460D4668B10A4909681831FFF722
:1040B00081FE0CB14FF0FF3521462846BDE8704027
:1040C000FFF7DCB9502080F31188BFF34F8FBFF3A7
:1040D0006F8FFEE72800002030B587B000240394DE
:1040E00005AA04A903A80494FFF728FEDDE903014B
:1040F0000094CDE90110002315A11748059A00F09E
:104100006AFB164D0028E8621FD000F0F9FC012878
:1041100009D0401C19D1502080F31188BFF34F8F74
:10412000BFF36F8FFEE7502080F31188BFF34F8FEE
:10413000BFF36F8F4FF0FF30A86201206861EC6021
:1041400007B0BDE8304000F041B807B030BD000016
:1041500049444C4500000000293700082800002091
:104160000248016B491C01637047000028000020D1
:104170001448016B11B10121C16170470021C16177
:104180000169B1FA81F1C1F11F0101EB81020E4910
:1041900051F822306BB101EB820101F108034A684A
:1041A00052684A609A4201D152684A60D1680160FF
:1041B0007047502080F31188BFF34F8FBFF36F8F8C
:1041C000FEE7000028000020F00C00201CB5374856
:1041D0000168374A914207D1502080F31188BFF31C
:1041E0004F8FBFF36F8FFEE700683149491E884249
:1041F00007D1502080F31188BFF34F8FBFF36F8F2B
:10420000FEE72C4908780190FF20087008788DF8A7
:1042100000009DF800009DF8002000F0F0009042A2
:1042200007D0502080F31188BFF34F8FBFF36F8FFB
:10423000FEE79DF80000204C00F0500020700720A1
:10424000A06005E09DF8002052008DF80020401E7F
:104250009DF800201206F5D4A060032807D0502056
:1042600080F31188BFF34F8FBFF36F8FFEE74FF4DA
:104270004070A060019808700C482030016841F43B
:1042800070010160016841F070410160FFF704FEB8
:1042900000206060FBF7ECFF0848016841F04041F6
:1042A0000160FBF7D1FF00201CBD000000ED00E025
:1042B00071C20F4100E400E09800002034EF00E0FC
:1042C00038B5049D18B153B1CAB181B120E0502076
:1042D00080F31188BFF34F8FBFF36F8FFEE750203D
:1042E00080F31188BFF34F8FBFF36F8FFEE750202D
:1042F00080F31188BFF34F8FBFF36F8FFEE739B1A3
:10430000502080F31188BFF34F8FBFF36F8FFEE70C
:1043100048241C46012384F846302B460094FFF7BE
:1043200033FA204638BD000070B50D46040025D094
:10433000FFF74CFDD4E90F20216802FB0011A160BA
:104340000021A163216861600A46D4E90F01401E83
:1043500000FB0121E16021464FF0FF3001F8440FDE
:10436000487004F110008DB1FFF7FEFC04F1240049
:10437000FFF7FAFCFFF74AFD012070BD502080F3E3
:104380001188BFF34F8FBFF36F8FFEE721690029BC
:10439000F0D000F019FB0028ECD004494FF0805019
:1043A0000860BFF34F8FBFF36F8FE3E704ED00E0CA
:1043B0002DE9FF4782B01D468A464FF000080400F1
:1043C00003D0BAF1000F08D011E0502080F311881B
:1043D000BFF34F8FBFF36F8FFEE7206C38B15020D3
:1043E00080F31188BFF34F8FBFF36F8FFEE7022D6D
:1043F0000AD1E06B012807D0502080F31188BFF369
:104400004F8FBFF36F8FFEE700F010FA3F4F4FF072
:1044100000094FF0805648B9049838B1502080F315
:104420001188BFF34F8FBFF36F8FFEE7FFF7CEFC0E
:10443000A06BE16B884207D3022D05D00498D0B160
:10444000B8F1000F1AD01EE02A4651462046FFF769
:10445000F4F8616A19B104F1240000F0B5FA20B152
:104460003E60BFF34F8FBFF36F8FFFF7CFFC01208C
:1044700006B0BDE8F087FFF7C9FC22E06846FFF709
:10448000E9FD4FF00108FFF7C1FCFFF769FEFFF7F8
:104490009DFC94F94400401C01D184F8449094F9A7
:1044A0004500401C01D184F84590FFF7AFFC04A9FA
:1044B000684600F029F930B12046FFF771FB00F0A3
:1044C000BDFA0020D4E7FFF781FCA06BE16B8842C6
:1044D00013D1FFF79BFC04F110000499FFF7C8FD0E
:1044E0002046FFF75DFB00F0A9FA00289ED13E6050
:1044F000BFF34F8FBFF36F8F98E7FFF787FC20461E
:10450000FFF74EFB00F09AFA90E7000004ED00E0A0
:104510002DE9F0471F4690468946040003D0B9F1C3
:10452000000F08D011E0502080F31188BFF34F8FA7
:10453000BFF36F8FFEE7206C38B1502080F31188F5
:10454000BFF34F8FBFF36F8FFEE7022F0AD1E06BEF
:10455000012807D0502080F31188BFF34F8FBFF39D
:104560006F8FFEE7FFF7AAFC5020EFF3118680F370
:104570001188BFF34F8FBFF36F8FA06BE16B884241
:1045800006D3022F04D0002086F31188BDE8F087FF
:1045900094F94550A06B3A4649462046FFF74DF83E
:1045A000681C04D06D1C84F845500120ECE7606A5B
:1045B0000028FAD004F1240000F006FA0028F4D014
:1045C000B8F1000FF1D00121C8F80010EDE70000AC
:1045D0002DE9F747002683B08A46040003D0BAF1DC
:1045E000000F08D011E0502080F31188BFF34F8FE7
:1045F000BFF36F8FFEE7206C38B1502080F3118835
:10460000BFF34F8FBFF36F8FFEE700F00FF9DFF8B6
:10461000F4804FF000094FF0805748B9059838B141
:10462000502080F31188BFF34F8FBFF36F8FFEE7E9
:10463000FFF7CCFBA56BC5B151462046FEF7EAFF5C
:104640006D1EA563206950B104F1100000F0BCF9A3
:1046500028B1C8F80070BFF34F8FBFF36F8FFFF71B
:10466000D5FB012006B0BDE8F087059808B11EB162
:1046700006E0FFF7CBFB27E06846FFF7EBFC0126DF
:10468000FFF7C4FBFFF76CFDFFF7A0FB94F94400B4
:10469000401C01D184F8449094F94500401C01D19C
:1046A00084F84590FFF7B2FB05A9684600F02CF8A6
:1046B000002820460AD0FFF773FA00F0BFF9204621
:1046C000FFF708F90028B3D00020CBE7FFF702F985
:1046D00090B104F124000599FFF7CAFC2046FFF7CA
:1046E0005FFA00F0ABF90028A2D1C8F80070BFF360
:1046F0004F8FBFF36F8F9BE72046FFF751FA00F013
:104700009DF995E704ED00E02DE9F0410C46050028
:1047100011D0C4B1FFF75AFB174BDA686E682068F6
:10472000911B471C17D02F681B6A9F4219D09642D5
:1047300017D8012410E0502080F31188BFF34F8F69
:10474000BFF36F8FFEE7502080F31188BFF34F8FC8
:10475000BFF36F8FFEE70024FFF758FB2046BDE84C
:10476000F081884205D9401A20602846FFF772FC84
:10477000F1E700202060DCE7280000202DE9FF5F42
:104780008346DDE90E87994616468A469000FFF774
:104790003DFA05001CD05420FFF738FA040014D06D
:1047A0000020256384F85100CDE90240CDE900875F
:1047B0004B46324651465846FEF7F2FF2046FEF77A
:1047C00095FE012004B0BDE8F09F2846FFF732FBBC
:1047D0004FF0FF30F6E7F0B585B0DDE90B640A9DD8
:1047E000A6B1DCB1542700972663022684F85160F5
:1047F000002604AFCDE90246CDE90057FEF7D0FF11
:104800002046FEF773FE049805B0F0BD502080F3FB
:104810001188BFF34F8FBFF36F8FFEE7502080F3F7
:104820001188BFF34F8FBFF36F8FFEE705484169D3
:1048300019B1006B18B100207047012070470220A9
:1048400070470000280000200148C0687047000041
:104850002800002010B5FFF731FB0148C06810BDEB
:10486000280000202DE9F0412F4C0026206B28B1B4
:10487000A069401CA0613046BDE8F081E5686D1C70
:10488000E56013D1606B006838B1502080F3118867
:10489000BFF34F8FBFF36F8FFEE7606BA16B616358
:1048A000A063206A401C2062FFF7FAF8A06ADFF8D4
:1048B0007C80854209D3606B0068A0B1606BC068E2
:1048C000C7687868854211D2A0622068C06A00EB90
:1048D000800158F82100012800D90126E06900284C
:1048E000C9D00126C7E74FF0FF30EDE7381DFFF7CD
:1048F00011FAB86A18B107F11800FFF70BFAF96A54
:104900000120226988401043206101EB810108EBFE
:104910008100391DFFF74EFAF86A2168C96A88429A
:10492000C9D30126C7E7000028000020F00C0020B2
:1049300070B504004FF0000140D0214D286884423A
:1049400007D0502080F31188BFF34F8FBFF36F8FD4
:10495000FEE7A06C38B1401EA064636CE26A9A4224
:104960002CD040B12AE0502080F31188BFF34F8F44
:10497000BFF36F8FFEE7201DFFF7CCF9114A01212D
:1049800050B9E06A00EB800352F8233023B92B6959
:1049900001FA00F083432B61606CE062C0F1070014
:1049A000A061E06A2B6981401943296100EB800016
:1049B00002EB8000211DFFF7FDF90121084670BDC3
:1049C00028000020F00C00202DE9F041C068C468E8
:1049D000ACB104F118000746FFF79CF9154D286BA0
:1049E0000126A0B139461448FFF7E4F9E06A2968C6
:1049F000C96A88421CD90120EE61BDE8F0815020CF
:104A000080F31188BFF34F8FBFF36F8FFEE7201D38
:104A1000FFF780F9E16A2A6906FA01F0104328617C
:104A200001EB81000449B43901EB8000211DDBE773
:104A30000020E2E728000020A40D00202DE9F04727
:104A40002C4D00242746286B38B1FFF7BFF9286B9F
:104A5000401E2863286B40B146E0502080F3118847
:104A6000BFF34F8FBFF36F8FFEE7A968224E01207F
:104A7000D1B3A6F1B40980463068E8B1F068C468E3
:104A800004F11800FFF746F9201DFFF743F9E06A2B
:104A90002A6908FA00F11143296100EB800109EB52
:104AA0008100211DFFF786F9E06A2968C96A8842FA
:104AB000E2D3C5F81C80DFE70CB1FEF7F1FFAC696B
:104AC00044B14646FFF7CEFE00B1EE61641EF9D157
:104AD0000020A861E86938B1084901273807086053
:104AE000BFF34F8FBFF36F8FFFF790F93846BDE8E4
:104AF000F087000028000020A40D002004ED00E055
:104B000010B586B0FEF75AFD114C2068B8B10020F0
:104B10000390049005AA04A903A8FFF719F9DDE999
:104B2000032102208DE8070000230AA10B48059A03
:104B3000FFF751FE606010B106B0012010BD50209B
:104B400080F31188BFF34F8FBFF36F8FFEE7000034
:104B500064000020546D7220537663007D3B000892
:104B6000FEB51E4613460200089D4FF0000014D00B
:104B7000124C2768002F0FD0CDE9001302920629AE
:104B800015DAFFF753FE02284FF000030DD0002284
:104B900069462068FFF70CFCFEBD502080F31188A9
:104BA000BFF34F8FBFF36F8FFEE72A46F0E7002376
:104BB000324669463846FFF7ABFCFEBD6400002074
:104BC00021F00042A2F16052B2F5801F01F00043D3
:104BD00028BFD2F17F6C0BD95FEA001C43EAC20206
:104BE00042EB507018BF704728BF20F0010070479B
:104BF000B2F5801FBCBF184670474FEA410C1CF548
:104C0000001F02D2084600F064BB70B500F01DFA28
:104C100000000089FFF7F6BF4FF00040A0F58000CC
:104C20007047000010B591EA030F48BF83F00043BE
:104C300000F16882841A71EB030C05D2121943EB60
:104C40000C03001B61EB0C01DFF824E14FEA115467
:104C5000A4EB135C1EEA430F18BF9EEA445F73D0B7
:104C600023EA0E03DCF1200E21EA045143F4801301
:104C700032D322FA0CFE10EB0E0023FA0CFE41EBAD
:104C80000E01CCF1200E03FA0EFE10EB0E0051F1D6
:104C90000001B1F5801FCCF1200E32D201EB04519E
:104CA00012FA0EF2BDE8104058BF7047401C38BFE2
:104CB0005FEA420218BF7047002814BF20F00100CD
:104CC00041F100014FEA410313F5001F38BF70475F
:104CD000A1F1C04100F007BA012A43EB0302ACF195
:104CE000200CDCF11F0E32BF4FF0000E23FA0CF344
:104CF00010EB030041EB0451B4EB115FD0D0A1EBFA
:104D0000045101F5801149085FEA300001EB0451BC
:104D10000ED350F1000038BF12FA0EFE08D1BDE8E4
:104D20001040C9E7401C38BF5FEA4202CAD1C3E75E
:104D3000BDE810404FEA410313F5001F38BF70472C
:104D4000A1F1C04100F0CFB99EEA445F08D011EA5A
:104D50005E0FBDE8104004BF01F000410020704725
:104D6000BDE8104070B500F070F900BF64FBBE3EB6
:104D70000000E0FF2DE9C04130B4DFF8A0C23CEAFA
:104D8000111418BF3CEA131400F0EC8081EA03050B
:104D90001CEA111444EAD57418BF1CEA131500F07C
:104DA000C780A4EB05044FF0004545EAC12145EA60
:104DB000C32341EA505143EA525304F17F749942AC
:104DC00004F500344FEAC0204FEAC22208BF9042E7
:104DD00000F09C804FEA13650FF24016765D4FEAB3
:104DE000134506FB05F7C7F1807706FB07F74FEA87
:104DF000D737A7FB03687642C8F58038A7FB06CEF5
:104E000038BFA8F1010807FB08E64FF0000EA6FB2B
:104E1000028CE6FB03CEDCF1000CCEF1004E38BF75
:104E2000AEF1010EA6FB0C584FF000074FF0000545
:104E3000E6FB0E87A1FB08C6A0FB07CE16EB0E060D
:104E400045F10005E1FB076515F1E04E7EBFA4F5D5
:104E500080345FEA46066D4116F1800745F1000592
:104E60004FEA17274FEA066647EA0567A6F1DE46CE
:104E7000B6F1805F4FEA15251FD9384624F0010CA2
:104E800005EBC471BCF1FE6F01EB0C1102D8F0BC54
:104E9000BDE8008124425CBF01F5801E9EEAC47F0C
:104EA00002D4F0BCBDE80081244238D4F0BCA1F1AA
:104EB000C041BDE8004100F016B94FEAD22242EAF3
:104EC00043524FEAD323A7FB02864FEAD02040EAA1
:104ED000415007FB03661EEA0E0F4FEAD12105FB86
:104EE000026658BFA6EB0056B6EB00564FEA520ECC
:104EF0004EEAC37E18EB0E0E56EB530EBDD518EBE3
:104F000002085E417F1C55F10005B6E74FF480159D
:104F10004FF000074FF000064FF00008ADE7F0BC7F
:104F20004FF0000001F1C04101F00041BDE80081F7
:104F300011EA0C1F0CEA131500D00CE013EA0C1F49
:104F400000F025804FF00000F0BC81EA030101F081
:104F50000041BDE80081F0BCBDE8004181EA0301E9
:104F600000F0C1B8F0BCBDE8004170B500F06DF8CC
:104F7000097EFC3E00F007B881EA03014FF0000013
:104F800001F00041704781EA030100F0ACB8F0BCC9
:104F9000BDE800414FF0000021497047FFFDFBF9DB
:104FA000F7F5F4F2F0EEEDEBE9E8E6E4E3E1E0DE5C
:104FB000DDDBDAD8D7D5D4D3D1D0CFCDCCCBCAC8CE
:104FC000C7C6C5C4C2C1C0BFBEBDBCBBBAB9B8B7F5
:104FD000B6B5B4B3B2B1B0AFAEADACABAAA9A8A8E8
:104FE000A7A6A5A4A3A3A2A1A09F9F9E9D9C9C9BB6
:104FF0009A99999897979695959493939291919061
:105000008F8F8E8E8D8C8C8B8B8A898988888787F1
:105010008685858484838382828181800000FF0766
:105020000000F87FB0FA80F310FA03F10AD0C3F160
:105030001D0303F580634FEA41504FEA035202EB30
:10504000D12170474FF0000070470EF1020E2EF094
:10505000030E5EF8046B364205D4012A43EB0305C8
:1050600015F5001F12D8012841EB010C1CF5001F9B
:105070000CD80ED14FEAD17C15F5001F0CEB4C0C6F
:105080000CF1020C08BF4CEBD37C04E04FF0080C91
:1050900001E04FEAD37C0CEB4C0526FA05F606F04E
:1050A0000706B6F1040C06D20EEB860CBDE8704084
:1050B0004CF0010C6047DFE80CF0090B02024FF0E6
:1050C00000414FF00000A1F5002170BD19461046C7
:1050D000012851EB010418BFD4F5001484BF00204F
:1050E00001F0004170BD0808A0F500114FEA310140
:1050F0007047000010B591EA030F48BF83F00043EA
:105100003FF598AD841A71EB030C07D212198CF09D
:10511000004C43EB0C03001B61EB0C01DFF8A4E136
:105120004FEA1154A4EB135C1EEA430F18BF9EEA2A
:10513000445F00F0B08023EA6E03524221EA04513A
:10514000C3EB6E0338BF5B1EDCF1200E25D322FAC1
:105150000CFE10EB0E0043FA0CFE41EB0E01CCF1FD
:10516000200E03FA0EFE10EB0E0051F10001CCF1FF
:10517000200E29D412FA0EF201EB0451BDE81040C2
:1051800058BF7047401C1CBFB2F1004F7047002849
:105190000CBF491C20F00100704712EB020E43EBDC
:1051A000030218BF4FF0010E4EEA4202ACF1200C90
:1051B000DCF11E0E54D943FA0CFE10EB0E0051F137
:1051C000FF31CCF11E0ED5D50EF1010E12FA0EFEF6
:1051D000404141EB010101EB445C5FEA5C5C10D9AA
:1051E00010EBDE7001EB045138BFBEF1004FBDE89B
:1051F000104018BF704700280CBF491C20F0010068
:10520000704730D24FEAD42C11F5001124F4006419
:105210001BD0B1FA81F20B3AA41AA41ED2F12003DA
:10522000914030FA03F31943904001EBCC71002C0C
:1052300001EB0451BDE81040A8BF704701F1C04127
:105240004FF0000001F000417047B0FA80F310FA0F
:1052500003F100D110BDE41A173C4805C90AE4E780
:1052600001EB045110BD491001EB0451BDE81040A1
:105270004FEA300002E04FF0000170474A0008BFDB
:105280000042F8D0B2F5001F28BF704701F000417E
:105290004FF0000070479EEA445F07D011EA5E0FAE
:1052A000BDE8104004BF002100207047BDE8104059
:1052B00070B5FFF7CAFE00BF40DFF63E83F0004145
:1052C000104670470000E0FF4FF04070E1EE100A1A
:1052D0007047FF2141EAD050C0057047685300086D
:1052E000B12700080000000000000000800000005E
:1052F00000000000000000005C530008792B00084B
:10530000000000000000000080000000000000001D
:105310000000000050530008F5070008FFFF0000E0
:10532000000000001002000000000000000000006B
:105330000006101600061016000000000000000015
:10534000010203040607080900000000010203042B
:1053500064656275675461736B00000074656D70FD
:105360005461736B0000000064656661756C745471
:1053700061736B009453000800000020A800000037
:10538000C40100083C540008A80000200851000097
:10539000E001000800000000000000000000000024
:1053A00000000000010000001000000000000000EC
:1053B0000024F40054656D70203D200000000000C2
:1053C00000000000000000000000000000000000DD
:1053D00000000000000000000000000000000000CD
:1053E00000000000000000000000000000000000BD
:1053F00000000000000000000000000000000000AD
:10540000000000000000000000000000000000009C
:10541000000000000000000000000000000000008C
:10542000000000000000000000000000000000007C
:0C543000AAAAAAAA0000000000000000C8
:040000050800018965
:00000001FF
